:020000040800F2
:10000000500A002025020008DB310008B72B000849
:10001000D9310008671300084F36000800000000BF
:10002000000000000000000000000000E3320008B3
:100030006913000800000000E132000839330008AD
:100040003F0200083F0200083F0200083F0200088C
:100050003F0200083F0200083F0200083F0200087C
:100060003F0200083F0200083F0200083F0200086C
:100070003F0200083F0200083F0200083F0200085C
:100080003F0200083F0200083F0200083F0200084C
:100090003F0200083F0200083F0200083F0200083C
:1000A0003F0200089D3300083F0200083F0200089D
:1000B0003F0200083F0200083F0200083F0200081C
:1000C0003F0200083F0200083F0200083F0200080C
:1000D0003F0200083F0200083F0200083F020008FC
:1000E0003F0200083F0200083F0200083F020008EC
:1000F0003F0200083F0200083F0200083F020008DC
:100100003F0200083F0200083F0200083F020008CB
:100110003F0200083F0200083F0200083F020008BB
:100120003F0200083F0200083F0200083F020008AB
:1001300000F002F800F067F80AA090E8000C824492
:100140008344AAF10107DA4501D100F05CF8AFF26F
:10015000090EBAE80F0013F0010F18BFFB1A43F0A5
:10016000010318474C5000006C5000000A444FF047
:10017000000C10F8013B13F0070408BF10F8014B06
:100180001D1108BF10F8015B641E05D010F8016B4B
:10019000641E01F8016BF9D113F0080F1EBF10F8AF
:1001A000014BAD1C0C1B09D16D1E58BF01F801CBD2
:1001B000FAD505E014F8016B01F8016B6D1EF9D555
:1001C0009142D6D37047000000230024002500266A
:1001D000103A28BF78C1FBD8520728BF30C148BFAA
:1001E0000B607047662904F0FD81002070471FB541
:1001F00000F052FB04000020002103F0C3FCE0608B
:100200001FBD10B510BD00F047FC1146FFF7EFFF12
:1002100003F08AFA00F065FC03B4FFF7F2FF03BCB9
:1002200000F0A8FC0948804709480047FEE7FEE7C0
:10023000FEE7FEE7FEE7FEE7FEE7FEE7FEE7FEE796
:1002400004480549054A064B704700009B330008E7
:100250003101000850040020500A00205006002000
:10026000500600200FB41CB5074B06AA7B44694614
:100270000090059800F0F7FA0020694600F006FBB0
:100280001CBC5DF814FB00001D06000070B50446A0
:1002900085690068C10601D5302600E02026C00728
:1002A00007D070BDD4E9012130469047206A401C38
:1002B00020626D1EF6D570BD70B504468569007864
:1002C000C00707D170BDD4E9012120209047206AE2
:1002D000401C20626D1EF6D570BD2DE9F0474FF031
:1002E000000A89460446C0F820A02046E1688847F5
:1002F000002876D0252806D0D4E901219047206A2D
:10030000401C2062F1E7E168204600258847C4F8D8
:100310001CA006460027C4F818A02A2E09D0304693
:1003200003F0BAF938B304EB8708303EC8F8186018
:1003300019E059F8041B204604EB87029161E1683B
:100340008847012F064618D1E069002820DA25F0F9
:1003500020051DE0D8F8180000EB800006EB4000F7
:100360003038C8F818002046E1688847064603F090
:1003700093F90028EED1012F0AD02E2E08D1204665
:10038000E16888477F1C0646022F45F02005C4DB44
:10039000A069002803DA404245F00105A061E807A2
:1003A00001D025F01005B6B1A6F14100192802D8F8
:1003B000203645F400654A463146204625604D46C4
:1003C000FFF710FF58B1012806D0ED1D25F00700FA
:1003D00000F1080989E704E005F1040985E73046E2
:1003E0008AE7206ABDE8F0874FF0000200B51346A7
:1003F00094469646203922BFA0E80C50A0E80C5045
:10040000B1F12001BFF4F7AF090728BFA0E80C50F5
:1004100048BF0CC05DF804EB890028BF40F8042BEE
:1004200008BF704748BF20F8022B11F0804F18BF5B
:1004300000F8012B704770477047704770472DE9EF
:10044000FF4F0C461E464FF0FF378BB0D2E900013C
:10045000DDF860800A908A46C1F30A5505B93D4629
:10046000002108464FF00000BAF1000F00F44000F0
:1004700005DA00EB80004FF4400101EA50004FEA3A
:100480009059B9F1010F00DDB9460A9850EA4A00C7
:100490000ED044F61050A5F2FF3545432F14B8F1A5
:1004A000000F1ED07542291E1EDDC9F100021CE09E
:1004B000B8F1010F4FF0000001D0302103E0F2430A
:1004C00005E02154401CB042FBDB304600220021F5
:1004D00021540B99C1F80880C1E900200FB0BDE894
:1004E000F08FBD1B6D1CDEE74A4600DA694206A8A4
:1004F00000F05CFA06AB93E8070003AB83E8070063
:1005000050460A9900F03DFB8DE80700A0F5005029
:100510001F3800900398002D0ADD42F21F014A4661
:100520000844002303A90390684600F0A6FD09E0F3
:10053000A0F500504A461F38002303A903906846DF
:1005400000F0B0FD8DE807000004000C03D04FF070
:10055000FF30410800E01046B8F1000F03D0002240
:10056000009215461EE0751E05D400F099F9303250
:1005700062556D1EF9D5B3460122084302D0002210
:100580007F1C04E02078302801D100227F1E002A41
:10059000099784D01DE0112D07DA00F081F930327F
:1005A00062556D1C50EA0102F5D1084302D0009853
:1005B000C8B10EE00021681E05E0235C625C635454
:1005C0002254401E491C8142F7DBAB46A81B401E4B
:1005D0000990002004F80B000B98099AC0F80880D5
:1005E000C0E9002B7AE711264FF0000857E72DE904
:1005F000F04F88460446D21D22F0070191B0D1E9A0
:100600000001CDE90A0103F023F802460B98C00F60
:1006100001D02D2007E02068810701D52B2002E0C2
:10062000202101EAC000032A099001D0072A05DB36
:1006300003464146204600F079F90BE12078800618
:1006400001D5E06900E00620B8F1650F814606D0CB
:10065000B8F1660F18D0B8F1670F70D131E0002003
:10066000B9F1110F009001DB112301E009F1010341
:100670000AAA01A90CA8FFF7E2FEDDE90C7000262A
:1006800009F10105834647E001204B4600904FF0F9
:1006900000470AAA01A90CA8FFF7D1FEDDE90DB0B9
:1006A0000C995D46002610B909F101000D18B9EB4F
:1006B000050003D4C0F1FF3609F10105A5EB0900DF
:1006C0002BE0B9F1010F01DA4FF001090020B9F177
:1006D000110F0090484601DD112300E003460AAAED
:1006E00001A90CA8FFF7ABFEDDE90C704D46002612
:1006F0008346207800070AD4AB4500DA5D4601A89E
:10070000012D04DD411911F8011C302907D04F4596
:1007100002DA17F1040F04DA012082460FE06D1EA1
:10072000EEE7002F02DCED1B3E4403E0781CA842FC
:1007300000DD7D1CB81B00F1010A4FF00047207856
:10074000000703D4AA4501DB4FF0FF3A0021B7F1BF
:10075000004F0DF143088DF8431024D002202B23C5
:10076000002F01DA7F422D230A21021EA0F1010091
:1007700000DC5FB197FBF1FC97FBF1F201FB1C7C05
:1007800017460CF1300C08F801CDEEE7A8F1010096
:1007900003702188090501D5452100E06521A0F1FC
:1007A000010800F8011C09980FA9A1EB0807FF1D1B
:1007B00000B10120411901EBEA70A1693844081A1F
:1007C000401EA0612078C00602D42046FFF75EFDDF
:1007D000099828B1D4E901219047206A401C206281
:1007E0002078C00622D52046FFF750FD1EE0002EDF
:1007F00004DBB34502DD01A8805D00E03020D4E9D0
:1008000001219047206A401C2062761CAAF1010059
:100810005FEA000A0AD100F03FF8C0680168405C56
:10082000D4E901219047206A401C2062281EA5F1CE
:100830000105DCDC07E0D4E9012118F8010B904741
:10084000206A401C2062381EA7F10107F3DC204615
:10085000FFF732FD032011B041E6000001694A1C98
:1008600002610878704700B58FB0CDE901310021F1
:10087000059105497944CDE9031011466846FFF713
:100880002CFD0FB000BD0000E5FFFFFF0A6802F875
:10089000010B0A6070470000004870470C040020FC
:1008A00030B5B0F10A024FEA900E71F100034EEA42
:1008B000817EB0EB0E0061EB91014FEA101E4EEA13
:1008C000017E10EB0E0041EB11114FEA102E4EEAA3
:1008D000016E10EB0E0041EB11214FEA104E4EEA73
:1008E000014E10EB0E0041EB1141401841F10001A7
:1008F0004FEAD00040EA41704FEAD10110EB800589
:100900004FEA810444EA907444EB01046D1944EB0E
:100910000404521BA3414FF0000348BF0A3200D524
:1009200030BD401C41F1000130BD00002DE9F04117
:100930001F46044603260168072A01F4006004DB11
:1009400008B116A505E016A503E008B115A500E05D
:1009500015A521F010002060A069C01EA0610FB194
:10096000401EA0612046FFF791FC4FB1D4E9012160
:1009700038469047206A401C2062C01C206206E076
:10098000206AFAE7D4E9012115F8010B9047761E99
:10099000F8D22046FFF790FCBDE8F0814E414E00B2
:1009A0006E616E00494E4600696E66002DE9F047A3
:1009B000814616468AB0354878440DC88DE80D004A
:1009C00032487844801C03AC0DC884E80D0041F621
:1009D0009B300844372190FBF1F290FBF1F5A5F133
:1009E000800501FB12041B3C02D56442012000E09B
:1009F0000020DFF898A080460027FA44AAF1BE0A3A
:100A00000EE0E0070AD03246684607EB47010123B3
:100A10000AEB810100F046FB8DE8070064107F1CA3
:100A2000002CEED1194F7F44AE3F19E0E80715D0F6
:100A300007EB04100DF1180A90E80E008AE80E008A
:100A4000C068F04201D1981908903246012306A9E6
:100A500003A800F027FB03AB83E807006D10641CBC
:100A6000002DE3D14FF0010332466946B8F1000F83
:100A700003A802D000F001FB01E000F013FBC9E97C
:100A80000001C9F808200AB0BDE8F087DC47000083
:100A900000487047EC0300207546FFF7F9FFAE46AB
:100AA00005006946534620F00700854618B020B57A
:100AB000FFF7C6FBBDE820404FF000064FF00007EF
:100AC0004FF000084FF0000B21F00701AC46ACE8F6
:100AD000C009ACE8C009ACE8C009ACE8C0098D4663
:100AE000704710B50446AFF300802046BDE81040C3
:100AF000FFF792BB4FF0013C50F8042B51F8043B38
:100B00009A4221D1A2EB0C03934313EACC1317D1E1
:100B100050F8042B51F8043B9A4215D1A2EB0C0378
:100B2000934313EACC130BD150F8042B51F8043B38
:100B30009A4209D1A2EB0C03934313EACC13DBD006
:100B40004FF00000704700BFD01A01BAB1FA81F12E
:100B500001F0180122FA01F0CB40C1F12001DBB213
:100B6000C0B2C01A2CFA01F3D11A914311EAC31191
:100B7000E6D1704701491820ABBEFEE7260002000F
:100B800070475FEA400C08BF91F0000F4FEA8C23DA
:100B90004FEAC12243EA51514FEA1C5018BF00F5F9
:100BA000F0404FEA300018BF41F000415FEA6C5C52
:100BB00000F02980BCF1FF3F08BF40F08040704743
:100BC000130C06BF12044FF0100C4FF0000C130E64
:100BD00004BF12020CF1080C130F04BF12010CF138
:100BE000040C930F04BF92000CF1020CD30F04BF4E
:100BF00052000CF1010C11464FF00002A0F11F0051
:100C0000A0EB0C00704711F0004F08BF704731F0A7
:100C100000413FF4D5AF0B0C06BF09044FF0100C98
:100C20004FF0000C0B0E04BF09020CF1080C0B0F67
:100C300004BF09010CF1040C8B0F04BF89000CF1F7
:100C4000020CCB0F04BF49000CF1010CCCF12003C6
:100C5000A0EB0C0022FA03F302FA0CF241EA0301C2
:100C600000F10100704720F07F4C80EA030023F080
:100C70007F47ACEB070303F57C5300F0004003F122
:100C8000FF032DE980494FEA154B09B44FEA14439D
:100C900025EA0B4E24EA03480FF2042606EB13273D
:100CA00049083E785FEA320203FB0667C7F5000792
:100CB00007FB06F64FEA54374FEAD64606F102061E
:100CC00007FB066CCCF1005C4FEA1C472CEA074C92
:100CD00007FB06F40CFB06F504EB15464FEA9616E7
:100CE00034BF00204FF000404FEAD13706FB07FC2D
:100CF0004FEA1C4C0CFB0BF7D21B03FB0CF761EB10
:100D000007010CFB0EF7B0EB074072EB17420CFB30
:100D100008F734BFA2EB0742B2EB074261EB174181
:100D20004FEA0C444FEA910706FB07FC4FEA1C4CC4
:100D30000CFB0BF7B0EBC74072EB573203FB0CF721
:100D400034BFA2EBC742B2EBC74261EB57310CFB99
:100D50000EF7B0EBC70072EB57720CFB08F734BF0D
:100D6000A2EBC702B2EBC70261EB5771039F4FEAD8
:100D7000816141EA921104EBCC044FEAD1374FEA8A
:100D8000826206FB07FC42EA90124FEA80604FEA5B
:100D90001C4C0CFB0BF7D21B03FB0CF761EB0701A0
:100DA0000CFB0EF7B0EB074072EB17420CFB08F799
:100DB00034BFA2EB0742B2EB074261EB17414FEAA7
:100DC0008C554FEA910704EB9C2406FB07FC4FEA85
:100DD0001C4C0CFB0BF7B0EBC74072EB573203FB1C
:100DE0000CF734BFA2EBC742B2EBC74261EB5731FD
:100DF0000CFB0EF7B0EBC70072EB57720CFB08F759
:100E000034BFA2EBC702B2EBC70261EB577115EB1F
:100E10004C254FEA816141EA92114FEA82624FEA22
:100E2000D13742EA901206FB07FC44F100044FEA76
:100E300080604FEA1C4C0CFB0BF7D21B03FB0CF73A
:100E400061EB07010CFB0EF7B0EB074072EB1742AA
:100E50000CFB08F734BFA2EB0742B2EB074261EB91
:100E6000174115EB1C154FEA813141EA92414FEAD7
:100E7000823242EA90424FEA80304FEA0C7644F1E7
:100E8000000448EA03434EEA0B484FF0000EB2EB71
:100E9000080C71EB030724BF624639464EEB0E0E79
:100EA0004FF0000B0018524149414BEB0B0BB2EBDA
:100EB000080C71EB03077BF1000B24BF6246394637
:100EC0004EEB0E0E4FF0000B0018524149414BEB18
:100ED0000B0BB2EB080C71EB03077BF1000B24BF8B
:100EE000624639464EEB0E0E51EA020718BF46F035
:100EF000010616EB0E7655F1000254F1000103D500
:100F0000BDE88901BDE80088BDE88901BDE8004869
:100F1000B619524141EB0101A3F1010370478080F2
:100F20007F7E7D7C7B7A7978777676757473727143
:100F300071706F6E6E6D6C6C6B6A6A6968686766FB
:100F400066656464636362616160605F5F5E5E5D8D
:100F50005D5C5C5B5B5A5A59595858575756565501
:100F600055555454535352525251515050504F4F63
:100F70004F4E4E4D4D4D4C4C4C4B4B4B4A4A4A49B3
:100F800049494848484747474746464645454544F6
:100F90004444444343434342424242414141002B83
:100FA0009C4630D477002BD01CB54FEA370703B4EA
:100FB0004FF010004FF01001BAF1000F06D0BCF155
:100FC000000FDCBF40F0080040F008014FF00000C7
:100FD0000FBCBDE810400BF1010BBBF1010F08BFC6
:100FE0005FEA170722BF12F1010211F101014FF070
:100FF000004143F1000300F0004043EA0000704765
:10100000F9D35708D0E746EA064613F1400F4FEAF6
:1010100016461FDD13F1200FDFBF16430A460021DD
:1010200020335B42BED0C3F1200746EA064602FAEF
:1010300007F74FEA164646EA0706C3F1200722FAE9
:1010400003F201FA07F721FA03F14FF0000342EA35
:101050000702A7E746EA020646EA06464FEA1646B0
:1010600046EA0106BCBF46EA0646360C4FF00003CE
:101070004FF000024FF0000194E72DE9804C9A46B2
:10108000934670B491E8380007C831EA400C48BF75
:1010900034EA430C03D5FFF7E6FDFFF780FFF0BC11
:1010A000BDE8008C2DE9804C9A46934670B491E8D7
:1010B000380007C810F0804F08BF13F0804F03D1ED
:1010C00000F005F8FFF76BFFF0BCBDE8008C20F0E6
:1010D0007F4780EA030023F07F4C07EB0C03A3F566
:1010E0007C5300F00040A3F1FE0392F0000F00F0EB
:1010F000B38095F0000F00F077802DE901494FEAA9
:1011000011404FEA144621EA004800FB06FC24EA9D
:10111000064708FB06F607FB08F800FB07F718EB85
:1011200006484CEB164C4FEA124B18EB07484FEAB7
:1011300015464CEB174022EA0B4E0BFB06FC25EA4A
:1011400006470EFB06F607FB0EFE0BFB07F71EEB32
:10115000064E4CEB164C4FF000061EEB074E4CEBC8
:10116000174B18EB0B0840F1000018EB0E0B58EB77
:10117000000840F100008F1A4FF000013CBFC94346
:10118000661B14BFB5EB040C00213CBFC943F61B22
:101190004FEA17444EEA8E0E27EA04454FEA1C47F1
:1011A00004FB07622CEA074C05FB07F70CFB05F66E
:1011B00004FB0CFC16EB074642EB174216EB0C4601
:1011C00042EB1C421BEB060658EB0202414146EA89
:1011D0009E0601D5BDE80189B619524141EB0101D6
:1011E000A3F10103BDE801894FEA14454FEA114715
:1011F00024EA054621EA074C05FB07F406FB07F73E
:101200000CFB06F105FB0CFC11EB074144EB17440A
:101210004FEA124711EB0C4144EB1C4422EA074C05
:1012200005FB07F206FB07F70CFB06F605FB0CFCBB
:1012300016EB074642EB174216EB0C4642EB1C45F9
:101240006A1854F1000148BF7047B619524141EB8A
:101250000101A3F10103704795F0000F37D04FEA69
:1012600011424FEA144721EA024624EA074C02FBE6
:1012700007F106FB07F70CFB06F402FB0CFC14EB72
:10128000074441EB17414FEA154714EB0C4441EB7F
:101290001C4125EA074C02FB07F506FB07F70CFB90
:1012A00006F602FB0CFC16EB074645EB174516EB62
:1012B0000C4645EB1C42121951F1000148BF704722
:1012C000B619524141EB0101A3F1010370474FEA06
:1012D00014454FEA114724EA054621EA074C05FB6D
:1012E00007F106FB07F70CFB06F24FF0000605FBC3
:1012F0000CFC12EB074241EB174112EB0C4251EB95
:101300001C4148BF7047921841EB0101A3F1010352
:101310007047000010B501784FF6FF72407802EA7E
:101320000121084480B202F0F0FE4FF03332034B4B
:1013300002F0FAFC02F08CFE80B210BD3333F33FB2
:1013400008B54FF6FF730093022300F03DFB08BD84
:1013500007B582B04FF6FF720092012304AA00F095
:101360005BFC05B000BDFEE7704700002DE9F041D1
:10137000454D434FA5F18004D5E90023D4E912017E
:10138000404E4FF0000803F00DF831D8D4E90E01BB
:1013900000223E4B02F0CCFE2AD2606908B12069DF
:1013A0001FE0012060612069142817DAD4E91A01CE
:1013B0004FF00002134602F0F5FF0FD2D4E91A01F4
:1013C0003A46334603F024F8C4E91A01D4E91C0173
:1013D0003A46334602F0ECFBC4E91C014046C4F82F
:1013E0001080401C2061D4E90E01D4E91A2338E0B2
:1013F000D5E90001D4E9122381F0004102F0D2FFC7
:1014000033D8D4E90E010022134602F0CBFF2CD2D0
:10141000606901281ED1C4F814802069454614284B
:1014200017DAD4E91C014FF00002134602F080FEE7
:101430000FD2D4E91C013A46334602F0B9FBC4E9A5
:101440001C01D4E91A013A46334602F0E1FFC4E92F
:101450001A0125612069401C2061D4E90E01D4E9FC
:101460001C2302F0A5FBC4E90E01D4E90E0102F031
:101470001FFEBDE8F041C2B20421054801F032BFB1
:101480009A9999999999C93F000200200080664075
:10149000A40300202DE9F041474E0025A6F1800469
:1014A000434FD4E91E01DFF80C812A46434B02F07A
:1014B0003FFE71D3D6E90023D4E9140102F072FF94
:1014C0002ED8D4E9100100223D4B02F06BFF27D249
:1014D000A068E8B90120A060E068142817DAD4E910
:1014E00018012A46134602F023FE10D2D4E918014F
:1014F0003A464646434602F05BFBC4E91801D4E98C
:1015000016013A46334602F083FFC4E91601E5604E
:10151000E068401CE060D4E91001D4E9182337E00A
:10152000D6E90001D4E9142381F0004102F03AFF2A
:1015300032D8D4E910010022224B02F0F9FD2BD25F
:10154000A06801281DD1A560E068142818DAD4E944
:1015500016014FF00002134602F024FF10D2D4E926
:1015600016013A464646434602F052FFC4E91601C8
:10157000D4E918013A46334602F01AFBC4E91801CF
:10158000E560E068401CE060D4E91001D4E916236E
:1015900002F00EFBC4E91001D4E9100102F088FD4D
:1015A000BDE8F041C2B20C21074801F09BBE00002B
:1015B0009A9999999999C93F0002002000005940D1
:1015C00000003E4000C06240A403002072B6FEE767
:1015D00030B585B0002002900D48816941F00801C6
:1015E00081618069022400F0080004902020CDE988
:1015F00000040320074D03906946284600F01EF8BA
:1016000069462846009400F019F805B030BD000086
:1016100000100240000C014070B5044600F00AF9C9
:101620000546601C02D004480078044400F002F92A
:10163000401BA042FAD370BD080200202DE9F84FEC
:10164000DFF8C8910024A9F1040B23460F2709F104
:10165000040AABF1040ED1E00125A54006EA05021B
:10166000AA4276D1DFF8A8C14E68A6EB0C08664501
:101670002BD00DDC032E34D005DC36B3012E19D06F
:10168000022E2FD11BE0112E16D0122E2AD119E0D6
:10169000B8F5881F19D006DCB8F5803F15D0B8F52D
:1016A000801F1FD111E0B8F5001F0ED0B8F5041F40
:1016B00018D10AE0CB6815E0CB681B1D12E0CB689F
:1016C00008330FE0CB680C330CE08B682BB1012B97
:1016D0004FF0080303D0456104E0042302E00561F4
:1016E00000E00023FF2A01D8064601E000F10406CD
:1016F0004FEA840501D9A5F12005D6F8008007FA44
:1017000005FC28EA0C0803FA05F548EA0508C6F8BE
:1017100000804D68ED0070D53E4DAE6946F0010683
:10172000AE61AD6924F0030605F0010500953A4D60
:1017300006EB050CDCF80850A607360F07FA06F88A
:1017400025EA0805DFF8D480404503D14FF00008B2
:1017500025E052E0DFF8C880404502D14FF0010893
:101760001DE0DFF8C080404502D14FF0020816E0CE
:10177000DFF8B480404502D14FF003080FE0DFF8F6
:10178000AC80404502D14FF0040808E0DFF8A080AB
:10179000404502D14FF0050801E04FF0060808FA75
:1017A00006F848EA0508CCF808804D68D9F80060CA
:1017B000ED024D4601D5164300E096432E604D687C
:1017C000DAF80060AD02554601D5164300E09643B5
:1017D0002E604D68DBF80060AD035D4601D5164311
:1017E00000E096432E604D68DEF80060ED0375461C
:1017F00001D5164300E096432E60641C0A68164625
:10180000E2407FF429AFBDE8F88F000008040140F2
:1018100000001110001002400000014000080140CB
:10182000000C01400010014000140140001801406C
:10183000001C014001488068704700000802002039
:1018400070B5040025D094F83D00002520B984F837
:101850003C50204600F00EFB242084F83D00206818
:10186000016821F0010101602068016841F4004134
:1018700001602068016821F40041016000F07AFCF9
:101880004D4A6168914201D84C4900E04C49884278
:1018900001D2012070BD4B492368B0FBF1F15E68B5
:1018A00026F03F060E435E606368934206D94FF40C
:1018B000967359434FF47A73B1FBF3F12368491CD3
:1018C0001E6A26F03F06314319626168914210D8C2
:1018D0004900401EB0FBF1F2521CC2F30B02042A75
:1018E00001D2042022E0B0FBF1F0401CC0F30B0059
:1018F0001CE0A268F2B301EBC10303EB0116431E27
:10190000B3FBF6F35B1C43F480431B0549D092B351
:1019100001EBC10202EB0111401EB0FBF1F0401CD3
:10192000C0F30B0040F4804040F400402168CA69D5
:101930004CF6FF739A431043C861D4E90710014382
:101940002068026822F0C00211430160D4E903015B
:1019500001432068826848F2FF339A431143816053
:10196000D4E9050108432168CA6822F0FF02104348
:10197000C86001E00EE016E02068016841F0010156
:1019800001602564202084F83D00256384F83E50E2
:10199000002070BD01EB4106431EB3FBF6F35B1C58
:1019A000B3E70120C2E701EB4101401EB0FBF1F0BB
:1019B000401CC0F30B00B7E7A086010080841E0026
:1019C00000093D0040420F002DE9F84F0025DDF8E9
:1019D0002890984617468A4604460095FFF72AFF46
:1019E000064694F83D0020287AD119230122864921
:1019F0002046009601F03CFA0028F5D194F83C000E
:101A000001286DD0012084F83C0020680168C907D6
:101A100003D1016841F0010101602068016821F4EF
:101A200000610160222084F83D00102084F83E000F
:101A300025646762A4F82A80608D20857348E0627F
:101A400033464A465146204601F0CEF800287CD164
:101A5000208DDFF8BC81202768B1012814D002282E
:101A6000206801681ED041F48061016020684169EE
:101A700080690090BBE0206841698169009101683C
:101A800041F400710160B2E02068016821F48061D6
:101A9000016072B62068416981690091016841F472
:101AA00000710AE041F40061016072B6206841698A
:101AB00081690091016821F48061016062B696E05D
:101AC000032865D801280CD002284B464FF00002AD
:101AD0004146204600960BD001F0CAF9A8BB0CE0A5
:101AE00090E032464946204601F068FA68BB71E052
:101AF00001F0BEF948BB72B633E02068016821F4FA
:101B00008061016072B620680069616A0870606A6D
:101B1000401C6062208D401E2085608D401E6085C7
:101B20003C4846F2A8110068B0FBF1F0C0EBC000E1
:101B300000EB80000090401E009007D020684069B4
:101B4000C04340070DD50098F5E727E044F8305F23
:101B50006773A573206940F02000206162B6257389
:101B60001CE02068016841F4007101602068006990
:101B7000616A0870606A401C6062218D491E21857F
:101B8000618D491E618562B621680969017025E091
:101B900032464946204601F011FA10B10120BDE855
:101BA000F88F20680069616A0870606A401C606292
:101BB000208D401E81B22185608D401E6085206889
:101BC0004269D243520712D4032903D1016821F498
:101BD0008061016020680069616A0870606A401C69
:101BE0006062208D401E2085608D401E6085208DA6
:101BF00000287FF465AF84F83D7084F83E5084F887
:101C00003C50CCE70220CAE7020010000000FFFFB2
:101C100004000100140200202DE9F84F1F469046F1
:101C20008A460446DDF82890FFF704FE054694F83E
:101C30003D0020287FD119230122404920460095EC
:101C400001F016F9002876D194F83C00012872D0F2
:101C5000012084F83C0020680168C90703D10168AD
:101C600041F0010101602068016821F40061016018
:101C7000212084F83D00102084F83E0000262664D0
:101C8000C4F824806785608D20852D48E0622B464E
:101C90004A465146204601F01DF890B92068416936
:101CA0008069009036E02A464946204601F0BEF998
:101CB00050B1206C042804D12068016841F40071FF
:101CC00001600120BDE8F88F606A21680078086132
:101CD000606A401C6062618D491E6185218D491ECC
:101CE00089B2218522685369DB435B070BD451B16C
:101CF00000781061606A401C6062608D401E6085E3
:101D0000208D401E20852A464946204601F084F851
:101D10000028CED1208D0028C5D154F83D0B016894
:101D200041F400710160202004F81E09E67766770F
:101D30000020C7E7FFE70220C4E700000200100010
:101D40000000FFFF2DE9FF4F83B09A46DDE91197B0
:101D500093460446DDF84080FFF76CFD054694F895
:101D60003D0020287FD119230122404920460095BB
:101D700001F07EF8002876D194F83C00012872D05A
:101D8000012084F83C0020680168C90703D101687C
:101D900041F0010101602068016821F400610160E7
:101DA000212084F83D00402084F83E00002626646F
:101DB000C4F82480A4F82A90608D20852C48E06225
:101DC000CDE9007553465A462046049900F0D0FFED
:101DD00070B930E02A463946204601F027F958B15B
:101DE000206C042804D12068016841F4007101606E
:101DF000012007B0BDE8F08F606A216800780861B3
:101E0000606A401C6062218D491E89B22185628D05
:101E1000521E628522685369DB435B070BD469B1AC
:101E200000781061606A401C6062208D401E208531
:101E3000608D401E6085208D0028CBD12A46394612
:101E4000204600F0E9FF0028CAD154F83D0B016894
:101E500041F400710160202004F81E09E6776677DE
:101E60000020C6E7FFE70220C3E7000002001000E1
:101E70000000FFFF2DE9F04186B0054600200090EC
:101E800001900290039020492868204C12260327D5
:101E9000DFF87C80884217D1A06940F00800A0617B
:101EA000A069694600F008000490C020CDE9000652
:101EB00003974046FFF7C2FBE06940F40010E06181
:101EC000E06900F40010049012492868884218D193
:101ED000A06940F00800A061A069694600F0080010
:101EE00004904FF44060CDE9000603974046FFF7A9
:101EF000A5FBE06940F48000E061E06900F4800047
:101F0000049006B0BDE8F08100540040001002408B
:101F1000000C0140005800400248816802781144DA
:101F20008160704708020020074810B5016841F041
:101F300010010160032000F075F80F2000F006F892
:101F400000F024F8002010BD0020024070B50D4DB7
:101F500004464FF47A712878B1FBF0F00A49096819
:101F6000B1FBF0F000F0CCFA48B9102C07D20022F7
:101F70002146501E00F036F800206C6070BD012034
:101F800070BD000008020020140200200C4808B5B3
:101F9000816941F001018161816901F001010091D4
:101FA000C16941F08051C161C06900F0805000906A
:101FB0000448416821F0E06141F00071416008BDD2
:101FC0000010024000000140002809DB00F01F0261
:101FD000012191404009800000F1E020C0F800118B
:101FE00070470000F0B40E4B1B680C46C3F302238D
:101FF000C3F10705042D00D90425191D072901D2B5
:10200000002300E0DB1E012606FA05F1491E2140EF
:1020100099409E40761E16403143F0BC01F02CBB27
:102020000CED00E0064900F0070208684FF6FF03D8
:10203000184040EA0220034A10430860704700003D
:102040000CED00E00000FA052DE9F0470F46050011
:1020500061D0434E306800F00700B84209D23068C2
:1020600020F0070038433060306800F00700B842C5
:1020700051D128683B4C810712D5400703D56068D1
:1020800040F4E06060602878000703D5606840F4A1
:10209000605060606068A96820F0F00008436060EC
:1020A0002878C00728D06868012810D02168022845
:1020B00010D0890700292EDA616821F0030101435D
:1020C0006160FFF7B7FB804641F288390DE0216877
:1020D0008903EFE78901EDE7FFF7ACFBA0EB08010F
:1020E000494502D90320BDE8F0876068696800F0BF
:1020F0000C00B0EB810FEFD1306800F00700B84260
:102100000BD9306820F0070038433060306800F0A9
:102110000700B84201D00120E5E72878400705D53F
:102120006068E96820F4E060084360602878000790
:1021300006D56068296920F4605040EAC1006060FB
:1021400000F028F86168084AC1F30311515CC840E7
:102150000649086006480068FFF7F8FE0020C2E75D
:10216000002002400010024002510008140200202A
:102170000C0200200448054900684968044AC1F37C
:102180000221515CC8407047140200200010024038
:10219000125100080E4A51680E4801F00C03042B3E
:1021A00011D0082B0FD10C48C1F38343C903C05C85
:1021B0000AD55168084AC1F34041921E515C054A54
:1021C0005043B0FBF1F070470449484370470000AA
:1021D0000010024000127A00F250000800093D0091
:1021E0002DE9F84F040070D02078C04DC00749D0C9
:1021F0006868C0F38100012807D06868C0F38100D7
:10220000022809D16868C00306D52868800339D53B
:1022100060680028E7D035E06068B0F5803F0BD0FB
:1022200010B1B0F5A02F11D0286820F480302860BC
:10223000286820F4802002E0286840F4803028607C
:10224000606890B1FFF7F6FA06460AE0286840F4A5
:1022500080202860F0E700BFFFF7ECFA801B6428BD
:1022600073D828688003F7D50CE0FFF7E3FA064639
:1022700005E000BFFFF7DEFA801B6428F0D828686D
:102280008003F7D420789A4E80074FF001094FF071
:10229000000839D5686810F00C0F07D06868C0F3E3
:1022A0008100022809D16868C00306D42868800725
:1022B00014D52069012808D110E02069B0B1C6F812
:1022C0000090FFF7B7FA074605E00AE1FFF7B2FA18
:1022D000C01B0228C4D828688007F7D52868616920
:1022E00020F0F80040EAC10028600DE0C6F8008048
:1022F000FFF7A0FA074604E0FFF79CFAC01B02288C
:1023000023D828688007F7D4207800072CD579488F
:10231000A169D9B1C0F80090FFF78CFA074604E034
:10232000FFF788FAC01B02280FD8686A8007F7D524
:1023300071484FF4FA510068B0FBF1F0009000BF13
:102340000098411E0091FAD20EE080E0C0F80080B3
:10235000FFF770FA074604E0FFF76CFAC01B02288B
:1023600075D8686A8007F7D42078400760D5E86997
:102370000027C00008D4E86940F08050E861E869AF
:10238000012700F0805000905C480168C90513D413
:102390000168834641F480710160FFF74BFA824681
:1023A00006E000BFFFF746FAA0EB0A0064284ED80B
:1023B000DBF80000C005F5D5E06801280AD008B1B7
:1023C000052813D0286A20F001002862286A20F02E
:1023D000040002E0286A40F001002862E06841F24F
:1023E000883B98B1FFF726FA82460BE0286A40F056
:1023F00004002862EEE700BFFFF71CFAA0EB0A0119
:1024000059455AD8286A8007F6D50CE0FFF712FA2A
:10241000824605E0FFF70EFAA0EB0A0159454CD8B9
:10242000286A8007F6D41FB1E86920F08050E8617F
:10243000E06988B36968C1F38101022944D00228A8
:10244000C6F8608004D0FFF7F5F9044638E034E0C0
:10245000FFF7F0F9074604E0FFF7ECF9C01B02288C
:102460002BD828688001F7D4206AB0F5803F05D1C9
:102470006868A16820F4003008436860D4E9080166
:102480000843696821F4741108436860C6F86090D5
:10249000FFF7D0F9044606E025E000BFFFF7CAF9D0
:1024A000001B022809D828688001F7D51BE000BF6F
:1024B000FFF7C0F9001B022802D90320BDE8F88FFE
:1024C00028688001F4D40EE00128F7D06868226AF9
:1024D00000F48031914204D1616A00F470108842A6
:1024E00001D00120EAE70020E8E7000000100240E8
:1024F000000042428004424214020020007000406A
:1025000010B5401EB0F1807F01D3012010BD4FF007
:10251000E02460610F21601701F0AEF80020A06197
:1025200007202061002010BD7047704770B590F8FB
:102530003C20012A2CD0012480F83C40022280F863
:102540003D2003685A689D6822F070060A6832438D
:102550005A60104B02689A420ED00F4B9A420BD031
:10256000B2F1804F08D00D4B9A4205D00C4B9A42E5
:1025700002D00C4B9A4204D1496825F080031943DC
:10258000916080F83D40002180F83C10084670BD05
:10259000022070BD002C01400034014000040040C6
:1025A00000080040000C004010B5040003D094F86F
:1025B0003D0010B107E0012010BD002084F83C0070
:1025C000204600F01FF8022084F83D00211D2068FD
:1025D00000F0EAFE012084F8460084F83E0084F80A
:1025E0003F0084F8400084F8410084F8420084F8F9
:1025F000430084F8440084F8450084F83D0000203E
:1026000010BD000008B500680B49884212D10B4884
:10261000816941F4006181618069002200F40060F9
:10262000009011461920FFF7DDFCBDE80840192095
:10263000FFF7CABC08BD0000002C0140001002409A
:1026400090F83D10012901D001207047022180F847
:102650003D100168CA6842F00102CA6000680E4974
:1026600088420ED00D4988420BD0B0F1804F08D07F
:102670000B49884205D00B49884202D00A4988425A
:1026800004D1816801F00701062903D0016841F0F7
:102690000101016000207047002C0140003401401E
:1026A0000004004000080040000C004070B50446E3
:1026B00090F83C000025012817D0012684F83C60E2
:1026C000022084F83D002068826822F0770222F41C
:1026D0007F4282600868502838D00DDC20284FD017
:1026E00005DC90B3102811D14AE0022070BD3028DB
:1026F00046D040280AD13BE060282FD070280DD06A
:10270000B0F5805F03D0B0F5005F12D0012584F8EA
:102710003D60002084F83C00284670BDCB68D1E9BC
:102720000121206800F09BFE2068816841F077015C
:1027300009E0CB68D1E90121206800F090FE206813
:10274000816841F480418160E1E719E0CA68496825
:10275000206800F059FF5021206806E0CA684968E7
:10276000206800F062FF6021206800F082FECEE762
:10277000CA684968206800F047FF40212068F4E7F4
:10278000226801461046F0E770472DE9F041044603
:102790000068C66805694FF00007A90713D5B1079F
:1027A00011D5F91E0161012020772068806980071A
:1027B000204602D0FFF7E8FF04E000F07EF8204654
:1027C00000F024F92777680716D5700714D521681B
:1027D0006FF004000861022020772068806910F4FF
:1027E000407F204602D0FFF7CFFF04E000F065F8FD
:1027F000204600F00BF92777280715D5300713D5A9
:1028000021686FF008000861042020772068C06903
:102810008007204602D0FFF7B7FF04E000F04DF834
:10282000204600F0F3F82777E80616D5F00614D511
:1028300021686FF010000861082020772068C069C7
:1028400010F4407F204602D0FFF79EFF04E000F026
:1028500034F8204600F0DAF82777E80708D0F007C8
:1028600006D021686FF001000861204600F02AF9C7
:10287000280608D5300606D521686FF0800008616B
:102880002046FFF751FE680608D5700606D5216878
:102890006FF040000861204600F08CF9A8060AD5C8
:1028A000B00608D521686FF0200008612046BDE819
:1028B000F041FFF73ABEBDE8F081704770B50446BD
:1028C00090F83C0000260D4601280FD0012084F826
:1028D0003C006AB1042A1DD0082A2FD00C2A3FD010
:1028E0000126002084F83C00304670BD022070BDF7
:1028F000206800F0C7FD2068816941F0080181610E
:102900002068816921F004018161206881692A6958
:10291000114311E0206800F0E5FD2068816941F471
:10292000006181612068816921F480618161206892
:1029300081692A6941EA02218161D2E7206800F0B9
:1029400007FE2068C16941F00801C1612068C169C2
:1029500021F00401C1612068C1692A69114311E0B5
:10296000206800F029FE2068C16941F40061C1615E
:102970002068C16921F48061C1612068C1692A6948
:1029800041EA0221C161ACE710B5040003D094F81C
:102990003D0010B107E0012010BD002084F83C008C
:1029A000204600F01FF8022084F83D00211D206819
:1029B00000F0FAFC012084F8460084F83E0084F818
:1029C0003F0084F8400084F8410084F8420084F815
:1029D000430084F8440084F8450084F83D0000205A
:1029E00010BD000008B500680649884208D10648B5
:1029F000C16941F00201C161C06900F002000090AC
:102A000008BD0000000400400010024070470000B4
:102A100010B50446022249B104290ED0082913D06A
:102A200094F84100012816D0012010BD94F83E0012
:102A30000128F9D184F83E200FE094F83F000128E6
:102A4000F2D184F83F2008E094F840000128EBD14F
:102A500084F8402001E084F841200122206800F041
:102A6000F1FC13492068134A884201D0904203D1F7
:102A7000436C43F400434364206888420DD0904285
:102A80000BD0B0F1804F08D00B49884205D00B49DC
:102A9000884202D00A49884204D1816801F00701C6
:102AA000062903D0016841F001010160002010BD3A
:102AB000002C0140003401400004004000080040A8
:102AC000000C004070B536490068374D0968354E36
:102AD000A5F18004884261D1D4E91E010022334B64
:102AE00001F022F90222C5E9000101F0AFFDD4E9AD
:102AF000142301F01DFB0AD3D5E90001002233465F
:102B000001F052FBD4E9142301F04CFC07D2254913
:102B100000204942C4E916012549C4E91801D5E954
:102B20000001022201F092FDD4E9122301F000FB22
:102B30000AD3D5E900010022334601F035FBD4E980
:102B4000122301F02FFC07D2164900204942C4E9A4
:102B50001A011749C4E91C01D4E9160100221346E1
:102B600001F03AFA08D0D4E918010022134601F026
:102B700033FA01D0FEF78EFCD4E91A010022134685
:102B800001F02AFA0AD0D4E91C010022134601F010
:102B900023FA03D0BDE87040FEF7E8BB70BD00002B
:102BA0005C030020000010C0000200200000344040
:102BB0000000F0BF7047FEE701684A69D243520542
:102BC0000FD46FF480624A61002140F8301F202248
:102BD00042738173026942F00402026101730120B1
:102BE00070470020704700002DE9F84F0446C06A86
:102BF0001E4693460D4621680A6842F480620A60C8
:102C0000082807D0012805D010F5803F02D0206B9E
:102C1000112804D12068016841F4807101604FF0EF
:102C200001195B46002249462046009600F020F933
:102C30004FF4007840B120680068C00501D5C4F8A1
:102C400040800320BDE8F88F2069DFF884A0B0F54C
:102C5000804F0FD00620216800EAD51747F0F0001A
:102C6000086133465A460AF10601204600F048F949
:102C700058BB03E0E8B240F001001CE02168E8B274
:102C8000086133465A465146204600F039F9E0B90A
:102C90002068416981690091016841F48071016097
:102CA0005B46002249462046009600F0E1F80028E5
:102CB000C1D147F0F1002168086133465A465146B8
:102CC000204600F01DF90028BCD00120BAE7000022
:102CD00002000100F8B50446C06A1E460D461746BC
:102CE000082807D0012805D010F5803F02D0206BBE
:102CF000122804D12068016841F4807101601346F4
:102D000000224FF001112046009600F0B1F840B1CA
:102D100020680068C00502D54FF4007020640320CD
:102D2000F8BD2069B0F5804F0ED00620216800EA7A
:102D3000D51040F0F000086133463A460B49204672
:102D400000F0DEF878B902E005F0FE0000E0E8B23D
:102D500021680861054933463A46891F204600F03C
:102D6000CFF80028DCD00120F8BD000008000100E9
:102D70002DE9F843044600680D46DDE9089701682F
:102D80009846164641F4807101604B4600224FF090
:102D900001112046009700F06BF848B120680068E8
:102DA000C00502D54FF4007020640320BDE8F8830D
:102DB000216805F0FE0008613B464A461549204659
:102DC00000F09EF888B920684169806900903A4611
:102DD0004946204600F02AF948B1206C042804D165
:102DE0002068016841F4007101600120DEE7F5B25E
:102DF000B8F1010F09D02168300A08613A46494606
:102E0000204600F013F90028E7D120680561002072
:102E1000CCE700000200010070B516460D460446DE
:102E20001EE02046FFF7C8FE08B1012070BD681CF7
:102E300016D0FEF7FFFC801BA84200D885B9206899
:102E40004069C04340070BD5002044F8300F2021D3
:102E50006173A073216941F0200121612073E4E7CF
:102E600020684069C0434007DBD4002070BD0000EB
:102E70002DE9F047984617460D460446C1F307462C
:102E8000DDF820902AE000BFB8F1FF3F26D0FEF722
:102E9000D1FCA0EB0901414502D8B8F1000F1DD1CA
:102EA0002068012E16D0806925EA00000004000C7D
:102EB00012D00020B84211D1002044F8300F202158
:102EC0006173A073216941F0200121612073012009
:102ED000BDE8F0874069E7E70120EBE72068012EB5
:102EE0000AD0806925EA00000004000C06D000200A
:102EF000B842C9D00020EBE74069F3E70120F7E7CB
:102F00002DE9F047984616460D4604464FF0000955
:102F10004FF0200AC1F3074723E020684069C0430F
:102F2000400515D42068016841F4007101602168F2
:102F30006FF480604861C4F8309084F83DA084F854
:102F40003E90216C41F00401216484F83C9021E022
:102F5000701C06D0FEF76EFCA0EB0800B04203D850
:102F600016B1012F1FD021E02068012F15D08069F4
:102F700025EA00000004000C18D000BF44F8309F80
:102F800084F80DA084F80E90216941F020012161A0
:102F900084F80C900120BDE8F087406925EA000024
:102FA0000004000CEAD12068406901E020688069D3
:102FB00025EA00000004000CAFD1ECE72DE9F04158
:102FC000002590460E460446202728E04069C0436D
:102FD000C0060CD454F8301B6FF01000486144F860
:102FE00010596777A577206A2062257714E0FEF7ED
:102FF00021FCA0EB0800B04200D886B920684069E7
:10300000C04340060BD544F8305F6773A573206951
:1030100040F02000206125730120BDE8F081206888
:103020004169C9434906D1D40020F6E770B5164678
:103030000D4604461EE02046FFF7BEFD08B1012004
:1030400070BD681C16D0FEF7F5FB801BA84200D8A7
:1030500085B920684069C04300060BD5002044F8BC
:10306000300F20216173A073216941F0200121619B
:103070002073E4E720684069C0430006DBD40020E9
:1030800070BD0000094808B5816941F008018161FF
:10309000816901F008010091816941F004018161B9
:1030A000806900F00400009008BD0000001002409C
:1030B0000D4810B50B4901600C49416000214FF4E7
:1030C00080428160C0E9031241618161C161016296
:1030D000FEF7B6FB002803D0BDE81040FEF776BA35
:1030E00010BD00000054004018020020A08601001E
:1030F0000D4810B50B4901600C49416000214FF4A7
:1031000080428160C0E9031241618161C161016255
:10311000FEF796FB002803D0BDE81040FEF756BA34
:1031200010BD0000005800406C020020A086010085
:103130000D4810B50B4901600C49416000214FF466
:1031400080428160C0E9031241618161C161016215
:10315000FEF776FB002803D0BDE81040FEF736BA34
:1031600010BD0000005800406C020020A086010045
:1031700010B586B00024174800940194029403947B
:1031800004941349059401604721C0E9011444F6F1
:103190001F61C0E9031444618461FFF705FA08B1B7
:1031A000FEF714FA4FF48050009069460948FFF783
:1031B0007DFA08B1FEF70AFA049404A905480594BB
:1031C000FFF7B4F9002801D0FEF700FA06B010BDF1
:1031D000002C01405C030020FEE7FEE72DE9F047EC
:1031E00098461746824600260C46DDF8209010E0EF
:1031F0002146504600F047FC554606E019F8060007
:10320000761C00F0B3FB6D1CEDB2BD42F6D3641C1E
:10321000E4B24445ECD3BDE8F08700002DE9F05F4F
:103220001E4692468B4600254FEAC00923E000BFA8
:1032300009EB051808F0FF00594600F024FC0024B3
:1032400006EB8517385D00F091FB641CE4B2102C8E
:10325000F8D30BF1010108F0FF00C9B200F013FC34
:103260000024381990F8200000F080FB641CE4B2C0
:10327000102CF6D36D1C5545DADBBDE8F09F00003D
:1032800070B516481449002501604721C0E90115B1
:1032900044F61F61C0E90315FFF776FB0F4C602071
:1032A000643C40F2DC562060C4E9016504222146FA
:1032B0000A482561FFF702FB0C2221460748666099
:1032C000FFF7FCFA04210548FFF7A2FBBDE87040B8
:1032D0000C210248FFF79CBB00040040A40300201F
:1032E00070477047B42A00D9B4224FF4FA635A43A6
:1032F000B423B2FBF3F202F5FA72006892B229B17C
:10330000042905D0082905D002647047426370473C
:1033100082637047C263704710B50C4602460421B1
:103320000448FFF7DFFF2246BDE810400C210148AA
:10333000FFF7D8BFA4030020FEF7EEBD30B58FB075
:1033400028216846FDF750F814210AA8FDF74CF82B
:1033500001210804CDE90010002402940225049103
:10336000CDE907504FF4E01009906846FEF738FFAA
:1033700008B172B6FEE70F20CDE90A054FF4806070
:10338000CDE90C4002210AA80E94FEF75DFE00284C
:1033900001D072B6FEE70FB030BD70470148FFF7AD
:1033A000F4B900005C030020F0B50268204C214D08
:1033B000214E224F224B4FF0804CA04209D0984220
:1033C00007D0604505D0A84203D0B04201D0B84232
:1033D00004D122F0700E4A6842EA0E02A04209D0DF
:1033E000984207D0604505D0A84203D0B04201D032
:1033F000B84203D122F44075CA682A434D6922F0CD
:1034000080022A4302608A68C2620A688262A0421D
:1034100001D0984201D1096901630121416101692B
:10342000C90703D0016921F001010161F0BD00006D
:10343000002C01400004004000080040000C004047
:103440000034014010B501F01F030121046A9940C6
:103450008C430462016A9A401143016210BD10B5A9
:10346000846842EA032224F47F440A4322438260B0
:1034700010BD826822F070020A4342F007018160A9
:1034800070470000F0B5036A026A22F0010202628E
:1034900042688469124E24F073050C682C4323F0B3
:1034A00002058B682B430D4DA84201D0B04205D1D7
:1034B00023F00807CB683B4323F00403A84201D064
:1034C000B04205D14D6922F4407215438A692A43FE
:1034D00042608461496841630362F0BD002C014091
:1034E00000340140F0B5026A036A23F0100303625E
:1034F000436884690D6824F4E64444EA05248D6831
:1035000022F0200242EA05120F4D104EA84201D0CF
:10351000B04206D1CF6822F0800242EA071222F0C0
:103520004002A84201D0B04207D14D6923F4406364
:1035300043EA85038D6943EA8503436084614968F2
:1035400081630262F0BD0000002C014000340140A4
:10355000F0B5026A036A23F4807303624368C469A6
:1035600022F4007224F073050C68124E2C438D680F
:1035700042EA05220E4DA84201D0B04206D1CF68E2
:1035800022F4006242EA072222F48062A84201D0BB
:10359000B04207D14D6923F4405343EA05138D69C6
:1035A00043EA05134360C4614968C1630262F0BD28
:1035B000002C01400034014030B5046A026A22F454
:1035C000805202624268C3690D6823F4E64343EA0D
:1035D00005238D6824F4005444EA0534084DA842BC
:1035E00002D0084DA84204D14D6922F4804242EA3B
:1035F00085124260C36149680164046230BD000005
:10360000002C01400034014010B5036A046A24F024
:1036100001040462846924F0F00444EA021423F0F3
:103620000A020A438461026210BD10B5036A046A8B
:1036300024F010040462846923F0A00324F470448D
:1036400044EA023243EA01118261016210BDFEE7E1
:10365000490050EAC12018BF04204A0D18BF40F0AD
:10366000010040F2FF72B2EB515F08BF40F0020070
:10367000012808BF052070470907090E002804DB50
:1036800000F1E02080F80014704700F00F0000F116
:10369000E02080F8141D704730380A2801D201203C
:1036A000704700207047000010B5FFF721FDFFF7BD
:1036B000FFFC012246211A48FDF74AFE0520FDF7CE
:1036C000ABFF102246211648FDF742FE0122B82129
:1036D0001348FDF73DFE0520FDF79EFF1022B8219F
:1036E0000F48FDF735FE012246210E48FDF730FE5A
:1036F0000520FDF791FF102246210A48FDF728FE1C
:103700000122B8210748FDF723FE0520FDF784FFBD
:103710001022BDE81040B8210248FDF719BE000094
:103720006C020020180200200EB5FEF7FDFBFFF72B
:1037300005FEFFF7A7FCFFF7A3FDFFF719FDFFF755
:10374000B3FF00F041F96C4800900823602200218B
:103750002020FFF743FD4FF47A742046FDF75CFF0D
:1037600000F0D8F8654B062203210220FFF756FD32
:103770002046FDF751FF00F0CDF8FDF729FF5A2153
:103780000846FFF7C9FD2046FDF746FF5C48FEF7F7
:1037900057FF5C4C0A20FDF73FFF5A4A47215A4821
:1037A000FDF7CEFD574AB921921C5748FDF7C8FDD9
:1037B000544A5548121D47215438FDF7C1FD514A5E
:1037C0005148921DB9215438FDF7BAFD4D48FDF717
:1037D000A1FD00F09AFCC4E906014A48801CFDF7EF
:1037E00099FD00F092FCC4E908014648001DFDF770
:1037F00091FD00F08AFCC4E90A014248801DFDF7F2
:1038000089FD00F082FCC4E90C013F48D4E906239D
:103810003EA15430FCF726FD3B48D4E908233BA1E8
:103820007430FCF71FFD3848D4E90A2337A19430DF
:10383000FCF718FD3448D4E90C2334A1B430FCF76C
:1038400011FD314A0223543201213C2000F02EF9AF
:103850002D4A0223743201210A2000F027F92A4A56
:103860000223943203210A2000F020F9264A022381
:10387000B43203213C2000F019F9D4E90823D4E93B
:103880000A5191469A460E46284600F091F9029157
:10389000D4E90C238346D4E9060117469846CDE9BE
:1038A000000100F085F95A46029B00F0B1FDC4E921
:1038B00012013A4643463146284600F079F98346DC
:1038C0000291DDE900014A46534600F071F98A464B
:1038D00081465A46029B00F09BFDC4E9140148460C
:1038E0002A463346514600F063F93A46434600F013
:1038F0005FF9C4E91E014DE7F04E0008000000200A
:103900005C030020800100206C02002025352E3051
:103910006600000070B5002404F1B000C0B200F0F1
:1039200013F8002000F010F8102000F00DF800252A
:10393000002000F01BF86D1CEDB2802DF8D3641C44
:10394000E4B2082CE8D370BD01B584B0012104A80D
:1039500064228DE807000B46002278210248FEF71A
:10396000F1F905B000BD00006C02002001B584B083
:10397000012104A864228DE807000B46402278212B
:103980000248FEF7DFF905B000BD00006C02002020
:1039900070B506465FF0000404F1B000C0B2FFF756
:1039A000D3FF0020FFF7D0FF1020FFF7CDFF002549
:1039B0003046FFF7DBFF6D1CEDB2802DF8D3641CA1
:1039C000E4B2082CE8D370BD10B56420FDF724FEE6
:1039D000FFF7AEFBAE20FFF7B7FF2020FFF7B4FFE5
:1039E0001020FFF7B1FFB020FFF7AEFFC820FFF7B0
:1039F000ABFF0020FFF7A8FF1020FFF7A5FF402036
:103A0000FFF7A2FF8120FFF79FFFFF20FFF79CFF3A
:103A1000A120FFF799FFA620FFF796FFA820FFF748
:103A200093FF3F20FFF790FFA420FFF78DFFD320E7
:103A3000FFF78AFF0020FFF787FFD520FFF784FFFD
:103A4000F020FFF781FFD920FFF77EFF2220FFF74C
:103A50007BFFDA20FFF778FF1220FFF775FFDB20EE
:103A6000FFF772FF2020FFF76FFF8D20FFF76CFF3D
:103A70001420FFF769FFAF20FFF766FFBDE8104095
:103A80000020FFF785BF10B50446B031C8B2FFF77C
:103A90005BFF102040EA1410FFF756FF04F00F0000
:103AA000BDE8104040F00100FFF74EBF2DE9F047A0
:103AB000002591468A460446012B22D0DFF8BC80BF
:103AC000022B24D155E02038C7B27A2C04D90AF150
:103AD0000100002400F0FF0A51462046FFF7D3FF03
:103AE00007EB4700002608EB4007B85DFFF73EFFF5
:103AF000761CF6B2062EF8D3A41D6D1CE4B2EDB20E
:103B000001E0DFF87C8019F805000028DBD1BDE872
:103B1000F0872038C7B2782C04D90AF102000024BB
:103B200000F0FF0A51462046FFF7ADFF5FF00006A8
:103B300006EB071118F80100FFF718FF761CF6B224
:103B4000082EF5D30AF10100C1B22046FFF79BFF12
:103B50005FF0000606EB071101EB0800007AFFF7A3
:103B600005FF761CF6B2082EF4D308346D1CE4B2BF
:103B7000EDB219F805000028CBD1C8E700490008CC
:103B8000D846000810B500290AD00878002807D0C8
:103B900005487844FCF7AEFF002801D0002010BD96
:103BA0000248784410BD00003E16000036160000A2
:103BB00010B591EA030F48BF83F0004300F1308451
:103BC000841A71EB030C05D2121943EB0C03001B92
:103BD00061EB0C01DFF824E14FEA1154A4EB135C14
:103BE0001EEA430F18BF9EEA445F73D023EA0E0318
:103BF000DCF1200E21EA045143F4801332D322FA7F
:103C00000CFE10EB0E0023FA0CFE41EB0E01CCF182
:103C1000200E03FA0EFE10EB0E0051F10001B1F57B
:103C2000801FCCF1200E32D201EB045112FA0EF2B9
:103C3000BDE8104058BF7047401C38BF5FEA4202E1
:103C400018BF7047002814BF20F0010041F10001A7
:103C50004FEA410313F5001F38BF7047A1F1C0417F
:103C600000F09ABB012A43EB0302ACF1200CDCF11B
:103C70001F0E32BF4FF0000E23FA0CF310EB0300BF
:103C800041EB0451B4EB115FD0D0A1EB045101F52D
:103C9000801149085FEA300001EB04510ED350F166
:103CA000000038BF12FA0EFE08D1BDE81040C9E787
:103CB000401C38BF5FEA4202CAD1C3E7BDE81040EA
:103CC0004FEA410313F5001F38BF7047A1F1C0410F
:103CD00000F062BB9EEA445F08D011EA5E0FBDE8C7
:103CE000104004BF01F0004100207047BDE81040C3
:103CF00070B500F003FB00BF64FBBE3E0000E0FFB8
:103D000002494FF0000000F06FBC00BF0000F87FD8
:103D1000491058BFC1F140415B1058BFC3F1404347
:103D20008B42EFF3008070472DE9C04130B4DFF8DB
:103D3000A0C23CEA111418BF3CEA131400F0EC8056
:103D400081EA03051CEA111444EAD57418BF1CEA81
:103D5000131500F0C780A4EB05044FF0004545EAB9
:103D6000C12145EAC32341EA505143EA525304F1C9
:103D70007F74994204F500344FEAC0204FEAC22212
:103D800008BF904200F09C804FEA13650FF2401686
:103D9000765D4FEA134506FB05F7C7F1807706FB12
:103DA00007F74FEAD737A7FB03687642C8F5803894
:103DB000A7FB06CE38BFA8F1010807FB08E64FF0C5
:103DC000000EA6FB028CE6FB03CEDCF1000CCEF16C
:103DD000004E38BFAEF1010EA6FB0C584FF00007A5
:103DE0004FF00005E6FB0E87A1FB08C6A0FB07CE3F
:103DF00016EB0E0645F10005E1FB076515F1E04EF7
:103E00007EBFA4F580345FEA46066D4116F1800757
:103E100045F100054FEA17274FEA066647EA0567AE
:103E2000A6F1DE46B6F1805F4FEA15251FD9384668
:103E300024F0010C05EBC471BCF1FE6F01EB0C1119
:103E400002D8F0BCBDE8008124425CBF01F5801EB1
:103E50009EEAC47F02D4F0BCBDE80081244238D47D
:103E6000F0BCA1F1C041BDE8004100F095BA4FEAB5
:103E7000D22242EA43524FEAD323A7FB02864FEAFB
:103E8000D02040EA415007FB03661EEA0E0F4FEABE
:103E9000D12105FB026658BFA6EB0056B6EB0056D3
:103EA0004FEA520E4EEAC37E18EB0E0E56EB530E3F
:103EB000BDD518EB02085E417F1C55F10005B6E741
:103EC0004FF480154FF000074FF000064FF0000848
:103ED000ADE7F0BC4FF0000001F1C04101F000413E
:103EE000BDE8008111EA0C1F0CEA131500D00CE0AC
:103EF00013EA0C1F00F025804FF00000F0BC81EAAF
:103F0000030101F00041BDE80081F0BCBDE80041C3
:103F100081EA030100F040BAF0BCBDE8004170B591
:103F200000F0ECF9097EFC3E00F007B881EA0301DD
:103F30004FF0000001F00041704781EA030100F0FA
:103F40002BBAF0BCBDE800414FF00000214970479A
:103F5000FFFDFBF9F7F5F4F2F0EEEDEBE9E8E6E44E
:103F6000E3E1E0DEDDDBDAD8D7D5D4D3D1D0CFCDD5
:103F7000CCCBCAC8C7C6C5C4C2C1C0BFBEBDBCBB0E
:103F8000BAB9B8B7B6B5B4B3B2B1B0AFAEADACAB09
:103F9000AAA9A8A8A7A6A5A4A3A3A2A1A09F9F9EE3
:103FA0009D9C9C9B9A999998979796959594939395
:103FB000929191908F8F8E8E8D8C8C8B8B8A89892C
:103FC00088888787868585848483838282818180AF
:103FD0000000FF070000F87F51EA030C17D41CF51E
:103FE000801F58BFBCF5801F00F10680994218BFA2
:103FF000704708BF9042704707D711F5801F58BF20
:1040000013F5801F19D499427047894270471CF5F7
:10401000801F08D5BCF5801FF7D58B4218BF7047AD
:1040200008BF824270474FF4001C1CEB410F38BFA1
:104030001CEB430F01D28B42704770B500F05EF964
:10404000922449004FF000514FF08053FFF760BEBB
:104050004FEA41034FEA5353A3F58063D3F11E03A4
:10406000C8BFD3F1210C0CDD4FF0004242EAC1225F
:1040700042EA505232FA03FC8CEAE17CACEBE1708C
:104080007047102BC4BF0020704703F5787CBCF14B
:10409000FF3F04D06FF0004282EA2100704770B504
:1040A00000F02CF94992248000207047F2E70000CC
:1040B0004FEA1153A3F58063D3F11E03A8BFD3F1D8
:1040C000200C08DB4FF0004242EAC12252EA505273
:1040D00032FA03F0704709420BD4102BC4BF002002
:1040E000704703F5787CBCF1FF3F05D04FF0FF30FF
:1040F00070474FF00000704770B500F0FFF800BF48
:104100004992248000207047F0E7B0FA80F310FA5B
:1041100003F10AD0C3F11D0303F580634FEA415058
:104120004FEA035202EBD12170474FF00000704775
:1041300051EA030C17D41CF5801F58BFBCF5801F33
:1041400000F10680994218BF704708BF904270473F
:1041500007D711F5801F58BF13F5801F19D4994256
:104160007047894270471CF5801F08D5BCF5801F39
:10417000F7D58B4218BF704708BF824270474FF493
:10418000001C1CEB410F38BF1CEB430F01D28B42CC
:10419000704770B500F0B2F8922449004FF000511A
:1041A0004FF08053FFF7B4BDDFF848C170B51CEA8B
:1041B000111E1EBF1CEA13159EEA0C0F95EA0C0F88
:1041C00000F06F8081EA030423EA4C134EEAD47EA8
:1041D00021EA4C1141F4801143F48013AE44A1FB59
:1041E000024CA0FB0365AEF17F7E361955EB0C0542
:1041F000A1FB034C4CF10003A0FB021C16EB0C06C8
:10420000654153F10003094218BF46F0010613F45B
:10421000007F0BD14FEA03314FEA0530340341EA06
:10422000155140EA16506FF003020AE04FEAC3212D
:104230004FEAC520F40241EA555140EA56506FF06A
:10424000020202EB2E4201EB025585EACE710AD042
:104250005FEA440C18BF24F0004450F1000041F123
:10426000000120EAD47040F2FE7C624500D270BDAD
:10427000A84214BF4FF080444FF04044002E08BFC6
:104280000024BEF1806FA8BFA1F1C041BDE870401D
:1042900080F282804FF0000001F1C04101F0004146
:1042A00070479EEA0C0F0CEA131518BF95EA0C0F25
:1042B00006D04FF0000081EA030E0EF0004170BD01
:1042C00000F01CF88900013E00F007B800F009B8C2
:1042D0004FEA430C5FEA5C5C08D081EA030100F01E
:1042E0005BB84FEA410C5FEA5C5CF6D14FF000002E
:1042F000014970470000FF070000F87F0EF1020E31
:104300002EF0030E5EF8046B364205D4012A43EB0F
:10431000030515F5001F12D8012841EB010C1CF50F
:10432000001F0CD80ED14FEAD17C15F5001F0CEB05
:104330004C0C0CF1020C08BF4CEBD37C04E04FF0AA
:10434000080C01E04FEAD37C0CEB4C0526FA05F68D
:1043500006F00706B6F1040C06D20EEB860CBDE89B
:1043600070404CF0010C6047DFE80CF0090B0202D2
:104370004FF000414FF00000A1F5002170BD19463B
:104380001046012851EB010418BFD4F5001484BF76
:10439000002001F0004170BD0808A0F500114FEAAF
:1043A0003101704753EA010C17D41CF5801F58BF28
:1043B000BCF5801F00F106808B4218BF704708BF14
:1043C0008242704707D713F5801F58BF11F5801F31
:1043D00019D48B4270479B4270471CF5801F08D54B
:1043E000BCF5801FF7D5994218BF704708BF9042AF
:1043F00070474FF4001C1CEB430F38BF1CEB410F00
:1044000001D2994270470FB40CBC03BCFFF7C1BE88
:1044100010B591EA030F48BF83F000433FF5D0ABDE
:10442000841A71EB030C07D212198CF0004C43EB89
:104430000C03001B61EB0C01DFF8A4E14FEA1154FF
:10444000A4EB135C1EEA430F18BF9EEA445F00F022
:10445000B08023EA6E03524221EA0451C3EB6E039B
:1044600038BF5B1EDCF1200E25D322FA0CFE10EBC8
:104470000E0043FA0CFE41EB0E01CCF1200E03FAC4
:104480000EFE10EB0E0051F10001CCF1200E29D4EC
:1044900012FA0EF201EB0451BDE8104058BF70470C
:1044A000401C1CBFB2F1004F704700280CBF491CD4
:1044B00020F00100704712EB020E43EB030218BF1D
:1044C0004FF0010E4EEA4202ACF1200CDCF11E0E60
:1044D00054D943FA0CFE10EB0E0051F1FF31CCF130
:1044E0001E0ED5D50EF1010E12FA0EFE404141EB23
:1044F000010101EB445C5FEA5C5C10D910EBDE70FB
:1045000001EB045138BFBEF1004FBDE8104018BFA9
:10451000704700280CBF491C20F00100704730D2C2
:104520004FEAD42C11F5001124F400641BD0B1FA29
:1045300081F20B3AA41AA41ED2F12003914030FA62
:1045400003F31943904001EBCC71002C01EB0451B3
:10455000BDE81040A8BF704701F1C0414FF0000016
:1045600001F000417047B0FA80F310FA03F100D176
:1045700010BDE41A173C4805C90AE4E701EB0451F1
:1045800010BD491001EB0451BDE810404FEA300066
:1045900002E04FF0000170474A0008BF0042F8D027
:1045A000B2F5001F28BF704701F000414FF0000036
:1045B00070479EEA445F07D011EA5E0FBDE81040E5
:1045C00004BF002100207047BDE8104070B5FFF720
:1045D00095FE00BF40DFF63E83F000411046704775
:1045E0000000E0FFFCF703B80CF00F03092B08BF35
:1045F000082000F059800A2B0BD0082B18BF7047F9
:1046000008BF1CF0400F0AD04FF000004FF000012F
:1046100070471CF0400F18BF4FF0004070471CF06F
:10462000100F08D020F0704300F07F4242EAD3011F
:104630004FEA4370704700F0604021F07F4242EA49
:10464000000201F07F4040EA727070474FF0FF0CAB
:104650004CF4E06C1CEA11531CBF9CEA030C94451B
:10466000C2BFDA4201EB02517047002B0DD0BCF102
:10467000000F0FD0002A01F00041A4BF41F0E0413B
:1046800041F07F614FF00000704701F000414FF0B2
:104690000000704750EA01334FF09B0C18BF4CF0FC
:1046A000806C7FF42DAB70471CF4801F11D01CF47C
:1046B000E02F03D06FEACC31490070474FF04050F3
:1046C000EFF3008222F0704242EA000282F3008897
:1046D00070474FF00000704700000000000000002D
:1046E000002F000000000700070000147F147F1453
:1046F00000242A7F2A1200626408132300364955D9
:10470000225000000503000000001C2241000000B0
:1047100041221C000014083E08140008083E080846
:10472000000000A0600000080808080800006060A1
:104730000000002010080402003E5149453E0000E0
:10474000427F4000004261514946002141454B31C2
:10475000001814127F10002745454539003C4A498E
:104760004930000171090503003649494936000600
:104770004949291E00003636000000005636000068
:1047800000081422410000141414141400004122E3
:10479000140800020151090600324959513E007CBB
:1047A0001211127C007F49494936003E41414122A5
:1047B000007F4141221C007F49494941007F09098E
:1047C0000901003E4149497A007F0808087F00003E
:1047D000417F4100002040413F01007F08142241F9
:1047E000007F40404040007F020C027F007F0408B1
:1047F000107F003E4141413E007F09090906003E0D
:104800004151215E007F0919294600464949493135
:104810000001017F0101003F4040403F001F204058
:10482000201F003F4038403F006314081463000716
:104830000870080700615149454300007F4141006D
:1048400000552A552A55000041417F00000402010D
:1048500002040040404040400000010204000020EB
:1048600054545478007F4844443800384444442029
:1048700000384444487F00385454541800087E09D6
:1048800001020018A4A4A47C007F0804047800009E
:10489000447D4000004080847D00007F102844005B
:1048A0000000417F4000007C04180478007C08046C
:1048B000047800384444443800FC242424180018A8
:1048C000242418FC007C0804040800485454542094
:1048D00000043F444020003C4040207C001C20401D
:1048E000201C003C4030403C004428102844001C60
:1048F000A0A0A07C004464544C4414141414141458
:1049000000000000000000000000000000000000A7
:10491000000000F80000000000000033300000003C
:1049200000100C06100C0600000000000000000043
:1049300040C07840C0784000043F04043F040400B5
:10494000007088FC08300000001820FF211E0000C5
:10495000F008F000E018000000211C031E211E00DA
:1049600000F00888700000001E2123241927211060
:1049700010160E0000000000000000000000000003
:10498000000000E0180402000000000718204000AA
:1049900000020418E000000000402018070000009A
:1049A000404080F0804040000202010F01020200FE
:1049B000000000F0000000000101011F01010100E2
:1049C000000000000000000080B070000000000047
:1049D00000000000000000000001010101010101D0
:1049E0000000000000000000003030000000000067
:1049F000000000008060180400601806010000003C
:104A000000E010080810E000000F102020100F0038
:104A1000001010F8000000000020203F20200000BF
:104A20000070080808887000003028242221300017
:104A300000300888884830000018202020110E001F
:104A40000000C02010F8000000070424243F2400C8
:104A500000F80888880808000019212020110E009D
:104A600000E0108888180000000F112020110E00AF
:104A700000380808C83808000000003F00000000A7
:104A80000070880808887000001C222121221C0068
:104A900000E010080810E0000000312222110F0091
:104AA000000000C0C0000000000000303000000026
:104AB0000000008000000000000080600000000096
:104AC00000008040201008000001020408102000AF
:104AD00040404040404040000404040404040400FA
:104AE000000810204080000000201008040201008F
:104AF000007048080808F00000000030360100008F
:104B0000C030C828E810E0000718272423140B0041
:104B10000000C038E0000000203C230202273820BB
:104B200008F8888888700000203F202020110E009F
:104B3000C030080808083800071820202010080096
:104B400008F808080810E000203F202020100F007F
:104B500008F88888E8081000203F2020232018004B
:104B600008F88888E8081000203F200003000000B3
:104B7000C03008080838000007182020221E020054
:104B800008F808000008F808203F210101213F2013
:104B9000000808F8080800000020203F202000003E
:104BA00000000808F8080800C08080807F0000002E
:104BB00008F888C028180800203F20012638200067
:104BC00008F8080000000000203F202020203000CE
:104BD00008F8F800F8F80800203F003F003F2000E8
:104BE00008F830C00008F808203F200007183F00F0
:104BF000E01008080810E0000F10202020100F001F
:104C000008F808080808F000203F21010101000011
:104C1000E01008080810E0000F18242438504F0056
:104C200008F8888888887000203F2000030C302016
:104C300000708808080838000038202121221C0054
:104C4000180808F8080818000000203F200000009D
:104C500008F808000008F808001F202020201F0086
:104C60000878880000C83808000007380E010000E6
:104C7000F80800F80008F800033C0700073C0300B0
:104C8000081868808068180820302C03032C302016
:104C90000838C800C83808000000203F2000000085
:104CA00010080808C83808002038262120201800DD
:104CB000000000FE020202000000007F40404000B1
:104CC000000C30C000000000000000010638C000E9
:104CD00000020202FE000000004040407F00000091
:104CE00000000402020204000000000000000000B6
:104CF00000000000000000008080808080808080B4
:104D0000000202040000000000000000000000009B
:104D100000008080808000000019242222223F2091
:104D200008F8008080000000003F112020110E00D4
:104D30000000008080800000000E11202020110063
:104D4000000000808088F800000E112020103F2015
:104D50000000808080800000001F22222222130099
:104D6000008080F0888888180020203F20200000E4
:104D70000000808080808000006B94949493600099
:104D800008F8008080800000203F210000203F20A4
:104D900000809898000000000020203F20200000A4
:104DA000000000809898000000C08080807F000094
:104DB00008F8000080808000203F24022D30200071
:104DC000000808F8000000000020203F202000001C
:104DD0008080808080808000203F20003F20003F36
:104DE0008080008080800000203F210000203F2044
:104DF0000000808080800000001F202020201F00F5
:104E0000808000808000000080FFA12020110E0023
:104E10000000008080808000000E112020A0FF8014
:104E2000808080008080800020203F2120000100C1
:104E30000000808080808000003324242424190016
:104E4000008080E0808000000000001F2020000023
:104E50008080000000808000001F202020103F2064
:104E6000808080000080808000010E3008060100F4
:104E700080800080008080800F300C030C300F0099
:104E800000808000808080000020312E0E312000C4
:104E9000808080000080808080818E7018060100F4
:104EA00000808080808080000021302C2221300012
:104EB00000000000807C020200000000003F404033
:104EC00000000000FF00000000000000FF000000E4
:104ED0000002027C800000000040403F0000000013
:104EE00000060101020204040000000000000000AE
:104EF000FFFFE901FF21E705072323FFFB0103FF74
:104F000001EF01FF01FFBB1B01017F5B110B6BFF79
:104F1000EB01F50301E3010101FFF77717C7E1E1B9
:104F2000873777F74F4361EF61716D2541FFFFFFD1
:104F3000FFFFE6EEE6E6FEEEFFF6E6EFFEF6E6E65D
:104F4000EEE7E6FEFEFFE7EFE7EFFFF7FFF7E7E745
:104F5000E7E6EEE6E6E7E6FEE6FFFFEEFFF7E7E769
:104F6000E7E7E6EEE7E6E6E6F6FEE6FEE7FFFFFF4A
:104F7000FFFFFFE3C180888C1C1C1C3C3878FFFFBE
:104F8000FCFCFC7C3C1C0C0C84C0E0F0F8FCFFFC3E
:104F9000FCFCFCFC00000000FCFCFCFCFCFFFF0037
:104FA000000000FFFFFFFFFFFFFF000000FFFFFF0B
:104FB000FFFF3F3333333333F3F3F0F0F0383F3F49
:104FC000333130F0F0F2F3F33333333333F3FFFFA5
:104FD000FFFFFF3F30303030FFFFFFFFFF3F3F3C20
:104FE000383030F1F3F3F3F3333030383CFFFFFF68
:104FF000FF1F1818181818181FFFFF1F1F18181860
:105000001818181FFFFF1F1F18181818181F1FFF48
:10501000FF1F1B18181818181F1FFFFF1F1818183C
:105020001818181FFFFF1F1F18181818181F1FFF28
:10503000010004080010200000FFFF000000000035
:1050400000000000FFFF000000000000000000FF63
:10505000FF000000000000000000FFFF0000000053
:1050600000000000FFFF00400000100000000201EF
:105070000000000000000000000000000004080024
:1050800010000040FFFF000000000000000000FFD3
:10509000FF000000000000000080FFFF4000000053
:1050A00000000400010000000000000000000000FB
:1050B00000000000000000000000000000000000F0
:1050C0000000000000010000040000000000407F1C
:1050D0007F4000000000000402000000000000000B
:1050E00000000000000000000000000000000000C0
:1050F000010202030405060708090A0B0C0D0E0F36
:105100001010000000000000000001020304060768
:105110000809000000000102030400000240000032
:10512000000000A00000000005400000000000C8D2
:10513000000000000C4000000000409C0000000047
:10514000194000000020BCBE0000000034400000F8
:10515000BFC91B8E00000004B5400000504BCFD0EB
:105160006607E2CF010000006C4100003E8251AAB8
:10517000DFEEA73401000000D9420000DCB5A0E258
:105180003A301F97FFFFFFFFB4450000FD25A0C880
:10519000E9A3C14FFFFFFFFFFF3F000000000080B9
:1051A00000000000FF3F0000000000800000000041
:1051B000EC51000800000020180200006C010008FB
:1051C000BC5200081802002038080000C80100087E
:1051D0001C00000043000000F8FFFFFF0C0000006F
:1051E0000E0000000F0000002E00000015106002ED
:1051F0008C000A120E22120AC20A12220E0010118C
:1052000004047E012021110905FF05091121201741
:10521000202020FF202022FF22FE19060110200955
:105220001030100F0888601F0A143F20180B101050
:10523000FF109008888888FF040A100880080F1360
:1052400044827F01808040432C10284681804108A1
:105250000B1110D030FF30D0121C10101F3D08046D
:1052600002017A0D10010204082119C0290119C494
:1052700039010111197B1520100C030F10030C10BC
:1052800020408080180840301196909091040E10B4
:105290009814135030C029013E44847E06050A014B
:1052A0001919A40132BC8056400801115BF03F0877
:0C52B0000A14BF10C980821013127A008B
:0400000508000131BD
:00000001FF
