:020000040800F2
:10000000A8050020450100084B200008B51900088C
:1000100049200008050500085F26000800000000D0
:10002000000000000000000000000000FD220008A9
:1000300007050008000000004D20000855230008B7
:100040005F0100085F0100085F0100085F01000810
:100050005F0100085F0100085F0100085F01000800
:100060005F0100085F0100085F0100085F010008F0
:100070005F0100085F0100085F0100085F010008E0
:100080005F0100085F0100085F0100085F010008D0
:100090005F0100085F0100085F0100085F010008C0
:1000A0005F0100085F0100085F0100085F010008B0
:1000B0005F0100085F0100085F0100085F010008A0
:1000C0005F0100085F0100085F0100085F01000890
:1000D0005F0100085F0100085F0100085F01000880
:1000E0005F0100085F0100085F0100085F01000870
:1000F0005F0100085F0100085F0100085F01000860
:100100005F0100085F0100085F0100085F0100084F
:100110005F0100085F0100085F0100085F0100083F
:100120005F0100085F0100085F0100085F0100082F
:10013000DFF80CD000F082F90048004729280008B9
:10014000A80500200648804706480047FEE7FEE76E
:10015000FEE7FEE7FEE7FEE7FEE7FEE7FEE7FEE777
:10016000B72300083101000840EA01039B0703D0D0
:1001700009E008C9121F08C0042AFAD203E011F8E6
:10018000013B00F8013B521EF9D27047D2B201E0A8
:1001900000F8012B491EFBD270470022F6E710B58C
:1001A00013460A4604461946FFF7F0FF204610BDE5
:1001B000F0B480EA0102D40F4200B2EB410F02D248
:1001C0000246084611464A0042D0C30DDDB2C1F3D3
:1001D000C752AD1A202D35DAC1F3160141F40002E1
:1001E00004B15242C5F1200602FA06F12A41104438
:1001F000B3EBD05F23D0C4B1012DA0EBC35009DC19
:10020000F0BC4FF0004202EAC352DBB200F500003E
:1002100000F0E5B8400000F1807000EBC350A0F1A1
:10022000807040EAD170490009E0490841EAC07194
:10023000A0EBC35000F50000400800EBC350F0BC39
:1002400000F0C4B86142012202EB4101001BF6E755
:10025000F0BC704781F00041AAE780F00040A7E7BA
:1002600080EA010210B502F00043400022D04A00AB
:100270001FD0010E01EB1261C0F35600C2F356020B
:1002800040F4000042F40002A0FB022000047F3989
:10029000140400D0401C50EA124001D44000491E12
:1002A000C2B20C0604EBD010401C4008802A02D0D9
:1002B00003E0002010BD20F00100002900DA00203A
:1002C000184310BD30B480EA010202F0004530F05E
:1002D000004221F0004013D090B1C30DD40DC2F301
:1002E0001601C0F31600E41A41F4000140F40002C4
:1002F0007D34914201D3641C00E04900002C02DAF5
:1003000030BC002070474FF400000023914201D31D
:10031000891A034340084FEA4101F7D151B1914294
:1003200002D14FF0004105E002D24FF0010101E09F
:100330006FF0010103EBC450284430BC00F046B814
:10034000C10F80EAE0700844CA079623002100F03C
:1003500046B820F00040C10DC0F3160040F4000084
:100360007F2901DA00207047962903DCC1F196014C
:10037000C840704796398840704700F0004230F01E
:1003800000400AD0C10D01F56071C0F3160042EAC9
:100390000151C208400711437047002001467047D1
:1003A00030B50B46014600202022012409E021FA45
:1003B00002F59D4205D303FA02F5491B04FA02F542
:1003C0002844151EA2F10102F1DC30BD0029A8BFAE
:1003D0007047401C490008BF20F00100704710B46E
:1003E000B0FA80FC00FA0CF050EA010404BF10BC23
:1003F000704749B1CCF1200421FA04F411FA0CF150
:1004000018BF012121430843A3EB0C01CB1D4FEA88
:1004100000614FEA102042BF002010BC704700EB83
:10042000C35010440029A4BF10BC7047401C4900B1
:1004300008BF20F0010010BC70470000064C074DBB
:1004400006E0E06840F0010394E8070098471034A4
:10045000AC42F6D3FFF770FE042A0008242A0008F5
:100460001CB510208DF804004FF0FF34012301AAC1
:100470008C210D48009400F04FFB012301AAB42108
:100480000948009400F048FB012301AA8C21074889
:10049000009400F041FB012301AAB4210348009419
:1004A00000F03AFB1CBD0000180000206C0000208A
:1004B0001CB54FF0FF3200924900022301AA00F060
:1004C00003FABDF8040040BA1CBD000010B5044694
:1004D00046210A48FFF7ECFF20805A210748FFF722
:1004E000E7FF608046210648FFF7E2FFA0805A211F
:1004F0000348FFF7DDFFE08010BD0000180000207A
:100500006C000020FEE7704772B6FEE770B5044647
:1005100000F010F90546601C02D00448007804443D
:1005200000F008F9401BA042FAD370BD080000207B
:100530002DE9F84FDFF8C8910024A9F1040B2346F8
:100540000F2709F1040AABF1040ED1E00125A54003
:1005500006EA0502AA4276D1DFF8A8C14E68A6EBEA
:100560000C0866452BD00DDC032E34D005DC36B3E9
:10057000012E19D0022E2FD11BE0112E16D0122ED3
:100580002AD119E0B8F5881F19D006DCB8F5803FEC
:1005900015D0B8F5801F1FD111E0B8F5001F0ED09F
:1005A000B8F5041F18D10AE0CB6815E0CB681B1D15
:1005B00012E0CB6808330FE0CB680C330CE08B689B
:1005C0002BB1012B4FF0080303D0456104E0042355
:1005D00002E0056100E00023FF2A01D8064601E0A1
:1005E00000F104064FEA840501D9A5F12005D6F8EB
:1005F000008007FA05FC28EA0C0803FA05F548EA2A
:100600000508C6F800804D68ED0070D53E4DAE6916
:1006100046F00106AE61AD6924F0030605F0010560
:1006200000953A4D06EB050CDCF80850A607360F8E
:1006300007FA06F825EA0805DFF8D480404503D11B
:100640004FF0000825E052E0DFF8C880404502D1B5
:100650004FF001081DE0DFF8C080404502D14FF0A7
:10066000020816E0DFF8B480404502D14FF00308DD
:100670000FE0DFF8AC80404502D14FF0040808E0FD
:10068000DFF8A080404502D14FF0050801E04FF0AF
:10069000060808FA06F848EA0508CCF808804D680C
:1006A000D9F80060ED024D4601D5164300E09643AF
:1006B0002E604D68DAF80060AD02554601D516434C
:1006C00000E096432E604D68DBF80060AD035D46A8
:1006D00001D5164300E096432E604D68DEF80060B9
:1006E000ED03754601D5164300E096432E60641C69
:1006F0000A681646E2407FF429AFBDE8F88F000093
:1007000008040140000011100010024000000140E8
:1007100000080140000C014000100140001401409D
:1007200000180140001C01400AB101617047090432
:10073000FBE70000014880687047000008000020C7
:1007400070B5040025D094F83D00002520B984F848
:100750003C50204600F076FA242084F83D002068C2
:10076000016821F0010101602068016841F4004145
:1007700001602068016821F40041016000F0CEFBB7
:100780004D4A6168914201D84C4900E04C49884289
:1007900001D2012070BD4B492368B0FBF1F15E68C6
:1007A00026F03F060E435E606368934206D94FF41D
:1007B000967359434FF47A73B1FBF3F12368491CE4
:1007C0001E6A26F03F06314319626168914210D8D3
:1007D0004900401EB0FBF1F2521CC2F30B02042A86
:1007E00001D2042022E0B0FBF1F0401CC0F30B006A
:1007F0001CE0A268F2B301EBC10303EB0116431E38
:10080000B3FBF6F35B1C43F480431B0549D092B362
:1008100001EBC10202EB0111401EB0FBF1F0401CE4
:10082000C0F30B0040F4804040F400402168CA69E6
:100830004CF6FF739A431043C861D4E90710014393
:100840002068026822F0C00211430160D4E903016C
:1008500001432068826848F2FF339A431143816064
:10086000D4E9050108432168CA6822F0FF02104359
:10087000C86001E00EE016E02068016841F0010167
:1008800001602564202084F83D00256384F83E50F3
:10089000002070BD01EB4106431EB3FBF6F35B1C69
:1008A000B3E70120C2E701EB4101401EB0FBF1F0CC
:1008B000401CC0F30B00B7E7A086010080841E0037
:1008C00000093D0040420F002DE9F84F0025DDF8FA
:1008D0002890984617468A4604460095FFF72AFF57
:1008E000064694F83D0020287AD119230122864932
:1008F0002046009601F066F90028F5D194F83C00F6
:1009000001286DD0012084F83C0020680168C907E7
:1009100003D1016841F0010101602068016821F400
:1009200000610160222084F83D00102084F83E0020
:1009300025646762A4F82A80608D20857348E06290
:1009400033464A465146204601F04CF800287CD1F7
:10095000208DDFF8BC81202768B1012814D002283F
:10096000206801681ED041F48061016020684169FF
:1009700080690090BBE0206841698169009101684D
:1009800041F400710160B2E02068016821F48061E7
:10099000016072B62068416981690091016841F483
:1009A00000710AE041F40061016072B6206841699B
:1009B00081690091016821F48061016062B696E06E
:1009C000032865D801280CD002284B464FF00002BE
:1009D0004146204600960BD001F0F4F8A8BB0CE08D
:1009E00090E032464946204601F092F968BB71E03A
:1009F00001F0E8F848BB72B633E02068016821F4E2
:100A00008061016072B620680069616A0870606A7E
:100A1000401C6062208D401E2085608D401E6085D8
:100A20003C4846F2A8110068B0FBF1F0C0EBC000F2
:100A300000EB80000090401E009007D020684069C5
:100A4000C04340070DD50098F5E727E044F8305F34
:100A50006773A573206940F02000206162B625739A
:100A60001CE02068016841F40071016020680069A1
:100A7000616A0870606A401C6062218D491E218590
:100A8000618D491E618562B621680969017025E0A2
:100A900032464946204601F03BF910B10120BDE83D
:100AA000F88F20680069616A0870606A401C6062A3
:100AB000208D401E81B22185608D401E608520689A
:100AC0004269D243520712D4032903D1016821F4A9
:100AD0008061016020680069616A0870606A401C7A
:100AE0006062208D401E2085608D401E6085208DB7
:100AF00000287FF465AF84F83D7084F83E5084F898
:100B00003C50CCE70220CAE7020010000000FFFFC3
:100B100004000100140000202DE9F84F1F46904604
:100B20008A460446DDF82890FFF704FE054694F84F
:100B30003D0020287FD119230122404920460095FD
:100B400001F040F8002876D194F83C00012872D0DA
:100B5000012084F83C0020680168C90703D10168BE
:100B600041F0010101602068016821F40061016029
:100B7000212084F83D00102084F83E0000262664E1
:100B8000C4F824806785608D20852D48E0622B465F
:100B90004A465146204600F09BFF90B920684169C3
:100BA0008069009036E02A464946204601F0E8F880
:100BB00050B1206C042804D12068016841F4007110
:100BC00001600120BDE8F88F606A21680078086143
:100BD000606A401C6062618D491E6185218D491EDD
:100BE00089B2218522685369DB435B070BD451B17D
:100BF00000781061606A401C6062608D401E6085F4
:100C0000208D401E20852A464946204600F0AEFF32
:100C10000028CED1208D0028C5D154F83D0B0168A5
:100C200041F400710160202004F81E09E677667720
:100C30000020C7E7FFE70220C4E700000200100021
:100C40000000FFFF30B585B00021009101910291B5
:100C500003911E4D03681E4C122103221D48AB4216
:100C600016D1A36943F00803A361A369039203F0BB
:100C700008030493C023CDE900316946FFF758FC0F
:100C8000E06940F40010E061E06900F4001019E050
:100C9000114DAB4217D1A36943F00803A361A369C7
:100CA000039203F0080304934FF44063CDE900314D
:100CB0006946FFF73DFCE06940F48000E061E069CF
:100CC00000F48000049005B030BD000000540040E6
:100CD00000100240000C01400058004002488168AA
:100CE000027811448160704708000020074810B561
:100CF000016841F010010160032000F067F80F2047
:100D000000F006F800F024F8002010BD002002409A
:100D100070B50D4D04464FF47A712878B1FBF0F0B0
:100D20000A490968B1FBF0F000F003FC48B9102C47
:100D300007D200222146501E00F028F800206C60E7
:100D400070BD012070BD00000800002014000020CC
:100D50000C4808B5816941F001018161816901F0A8
:100D600001010091C16941F08051C161C06900F089
:100D7000805000900448416821F0E06141F000712A
:100D8000416008BD0010024000000140F0B40E4B6D
:100D90001B680C46C3F30223C3F10705042D00D9D9
:100DA0000425191D072901D2002300E0DB1E0126BE
:100DB00006FA05F1491E214099409E40761E1640D4
:100DC0003143F0BC01F060BC0CED00E0064900F0DE
:100DD000070208684FF6FF03184040EA0220034A62
:100DE00010430860704700000CED00E00000FA05B9
:100DF0002DE9F0470F46050061D0434E306800F002
:100E00000700B84209D2306820F00700384330604C
:100E1000306800F00700B84251D128683B4C810788
:100E200012D5400703D5606840F4E0606060287820
:100E3000000703D5606840F4605060606068A9688E
:100E400020F0F000084360602878C00728D0686868
:100E5000012810D02168022810D0890700292EDA35
:100E6000616821F0030101436160FFF763FC804684
:100E700041F288390DE021688903EFE78901EDE748
:100E8000FFF758FCA0EB0801494502D90320BDE853
:100E9000F0876068696800F00C00B0EB810FEFD15B
:100EA000306800F00700B8420BD9306820F0070026
:100EB00038433060306800F00700B84201D00120AC
:100EC000E5E72878400705D56068E96820F4E06028
:100ED000084360602878000706D56068296920F417
:100EE000605040EAC100606000F028F86168084A7C
:100EF000C1F30311515CC840064908600648006808
:100F0000FFF706FF0020C2E7002002400010024069
:100F10009E290008140000200C0000200448054908
:100F200000684968044AC1F30221515CC840704717
:100F30001400002000100240AE2900080E4A51683B
:100F40000E4801F00C03042B11D0082B0FD10C48D4
:100F5000C1F38343C903C05C0AD55168084AC1F391
:100F60004041921E515C054A5043B0FBF1F070477E
:100F700004494843704700000010024000127A0004
:100F80008E29000800093D002DE9F84F040070D0BB
:100F90002078C04DC00749D06868C0F3810001289F
:100FA00007D06868C0F38100022809D16868C003CF
:100FB00006D52868800339D560680028E7D035E079
:100FC0006068B0F5803F0BD010B1B0F5A02F11D004
:100FD000286820F480302860286820F4802002E00F
:100FE000286840F480302860606890B1FFF7A2FB69
:100FF00006460AE0286840F480202860F0E700BF39
:10100000FFF798FB801B642873D828688003F7D506
:101010000CE0FFF78FFB064605E000BFFFF78AFBF9
:10102000801B6428F0D828688003F7D420789A4E73
:1010300080074FF001094FF0000839D5686810F0BB
:101040000C0F07D06868C0F38100022809D16868D6
:10105000C00306D42868800714D52069012808D168
:1010600010E02069B0B1C6F80090FFF763FB0746B7
:1010700005E00AE1FFF75EFBC01B0228C4D8286820
:101080008007F7D52868616920F0F80040EAC100C0
:1010900028600DE0C6F80080FFF74CFB074604E02F
:1010A000FFF748FBC01B022823D828688007F7D425
:1010B000207800072CD57948A169D9B1C0F80090F3
:1010C000FFF738FB074604E0FFF734FBC01B02289C
:1010D0000FD8686A8007F7D571484FF4FA51006855
:1010E000B0FBF1F0009000BF0098411E0091FAD2D1
:1010F0000EE080E0C0F80080FFF71CFB074604E02C
:10110000FFF718FBC01B022875D8686A8007F7D460
:101110002078400760D5E8690027C00008D4E86956
:1011200040F08050E861E869012700F080500090AD
:101130005C480168C90513D40168834641F4807195
:101140000160FFF7F7FA824606E000BFFFF7F2FA08
:10115000A0EB0A0064284ED8DBF80000C005F5D5E6
:10116000E06801280AD008B1052813D0286A20F0C9
:1011700001002862286A20F0040002E0286A40F09A
:1011800001002862E06841F2883B98B1FFF7D2FA8B
:1011900082460BE0286A40F004002862EEE700BFB8
:1011A000FFF7C8FAA0EB0A0159455AD8286A800708
:1011B000F6D50CE0FFF7BEFA824605E0FFF7BAFA73
:1011C000A0EB0A0159454CD8286A8007F6D41FB114
:1011D000E86920F08050E861E06988B36968C1F38C
:1011E0008101022944D00228C6F8608004D0FFF7AC
:1011F000A1FA044638E034E0FFF79CFA074604E021
:10120000FFF798FAC01B02282BD828688001F7D472
:10121000206AB0F5803F05D16868A16820F40030ED
:1012200008436860D4E908010843696821F474112F
:1012300008436860C6F86090FFF77CFA044606E051
:1012400025E000BFFFF776FA001B022809D82868BE
:101250008001F7D51BE000BFFFF76CFA001B0228E6
:1012600002D90320BDE8F88F28688001F4D40EE08D
:101270000128F7D06868226A00F48031914204D1D5
:10128000616A00F47010884201D00120EAE7002072
:10129000E8E70000001002400000424280044242A1
:1012A000140000200070004070B5040009D0606A8E
:1012B000002540B125616561A56294F8510040B1F7
:1012C0000CE0012070BD6068B0F5827FF4D0E5616C
:1012D000F2E784F85050204600F040F8022084F8ED
:1012E00051002068016821F040010160A088218937
:1012F00000F4827001F404410843A18901F4006103
:101300000843217C01F002010843217D01F0010125
:101310000843218B01F400710843217F01F038015B
:10132000084394F8201001F080010843218D01F456
:101330000051084321680860A069042101EA1040B7
:10134000216848602068C16921F40061C161656558
:10135000012084F85100002070BD000030B585B038
:101360000024009401940294039400681449884274
:1013700023D11448816941F480518161816901F46C
:1013800080510491816941F00401816180690E4DB1
:1013900000F004000490A02000900220019003209F
:1013A000039069462846FFF7C3F84020CDE90004C2
:1013B000694628460294FFF7BBF805B030BD00002F
:1013C0000030014000100240000801402DE9F84FB4
:1013D000984616468A460446FFF7ACF9814694F8CB
:1013E000510001281ED1BAF1000F73D0002E71D028
:1013F00094F85000012815D0012784F8507003207C
:1014000084F8510000256565C4F830A0A686E686FC
:10141000A563A587E58765642564A068B0F5004FDE
:1014200003D00CE00220BDE8F88F2068016821F0AD
:10143000400101602068016841F48041016020683A
:101440000168490603D4016841F040010160E06889
:10145000B0F5006F606803D048B3012E27D047E095
:1014600008B1012E1FD1206B21680088C86006E0FA
:1014700020688168890709D5216B0988C160206BC4
:10148000801C2063E08E401EE0860CE0FFF752F9DE
:10149000A0EB0901414503D3B8F1FF3F03D035E08C
:1014A000B8F1000F32D0E08E0028E1D123E0206BAC
:1014B00021680078087306E02068816889070AD5EA
:1014C000216B09780173206B401C2063E08E401E65
:1014D000E0860DE02BE0FFF72DF9A0EB0901414577
:1014E00003D3B8F1FF3F03D010E0B8F1000F0DD0E7
:1014F000E08E0028E0D14A464146204600F0A7FD94
:1015000008B120206065A06830B109E084F851700E
:1015100084F85050032086E72068C16880680090F6
:1015200084F8517004F8505F60680028F3D00120FF
:1015300079E710B5401EB0F1807F01D3012010BDC6
:101540004FF0E02460610F21601701F09DF800204A
:10155000A06107202061002010BD000070B590F848
:101560003C20012A2CD0012480F83C40022280F843
:101570003D2003685A689D6822F070060A6832436D
:101580005A60104B02689A420ED00F4B9A420BD011
:10159000B2F1804F08D00D4B9A4205D00C4B9A42C5
:1015A00002D00C4B9A4204D1496825F080031943BC
:1015B000916080F83D40002180F83C10084670BDE5
:1015C000022070BD002C01400034014000040040A6
:1015D00000080040000C004010B5040003D094F84F
:1015E0003D0010B107E0012010BD002084F83C0050
:1015F000204600F01FF8022084F83D00211D2068DD
:1016000000F0DAFE012084F8460084F83E0084F8F9
:101610003F0084F8400084F8410084F8420084F8D8
:10162000430084F8440084F8450084F83D0000201D
:1016300010BD000008B501680B48B1F1804F0BD018
:101640000A4A914207D1C16941F00201C161C069F2
:1016500000F00200009008BDC16941F00101C161C4
:10166000C06900F00100F5E70010024000040040EE
:1016700070B5044690F83C000025012817D00126DB
:1016800084F83C60022084F83D002068826822F0E3
:10169000770222F47F4282600868502838D00DDC3F
:1016A00020284FD005DC90B3102811D14AE0022049
:1016B00070BD302846D040280AD13BE060282FD0AA
:1016C00070280DD0B0F5805F03D0B0F5005F12D068
:1016D000012584F83D60002084F83C00284670BD58
:1016E000CB68D1E90121206800F0C1FE2068816843
:1016F00041F0770109E0CB68D1E90121206800F0D1
:10170000B6FE2068816841F480418160E1E719E01C
:10171000CA684968206800F07FFF5021206806E011
:10172000CA684968206800F088FF6021206800F0DE
:10173000A8FECEE7CA684968206800F06DFF402126
:101740002068F4E7226801461046F0E700B585B04E
:101750000021009101910291039102681948022130
:10176000B2F1804F1DD0184B9A4218D1826942F0D5
:10177000100282618069039100F0100004908020C3
:10178000CDE9000169461148FEF7D2FE10484168D4
:1017900021F4406141F0E06141F44061416005B0F5
:1017A00000BD826942F0040282618069039100F009
:1017B000040004900120CDE9000169460548FEF7C8
:1017C000B7FEECE7001002400004004000100140AA
:1017D000000001400008014070B5044690F83C004C
:1017E00000260D4601280FD0012084F83C006AB184
:1017F000042A1DD0082A2FD00C2A3FD00126002011
:1018000084F83C00304670BD022070BD206800F0B6
:1018100041FE2068816941F0080181612068816989
:1018200021F004018161206881692A69114311E076
:10183000206800F05FFE2068816941F400618161E9
:101840002068816921F480618161206881692A6949
:1018500041EA02218161D2E7206800F081FE206820
:10186000C16941F00801C1612068C16921F004012A
:10187000C1612068C1692A69114311E0206800F044
:10188000A3FE2068C16941F40061C1612068C1699B
:1018900021F48061C1612068C1692A6941EA02219D
:1018A000C161ACE710B5040003D094F83D0010B15D
:1018B00007E0012010BD002084F83C00204600F025
:1018C0001EF8022084F83D00211D206800F074FD00
:1018D000012084F8460084F83E0084F83F0084F834
:1018E000400084F8410084F8420084F8430084F802
:1018F000440084F8450084F83D00002010BD704786
:1019000010B50446022249B104290ED0082913D08B
:1019100094F84100012816D0012010BD94F83E0033
:101920000128F9D184F83E200FE094F83F00012807
:10193000F2D184F83F2008E094F840000128EBD170
:1019400084F8402001E084F841200122206800F062
:1019500081FD13492068134A884201D0904203D187
:10196000436C43F400434364206888420DD09042A6
:101970000BD0B0F1804F08D00B49884205D00B49FD
:10198000884202D00A49884204D1816801F00701E7
:10199000062903D0016841F001010160002010BD5B
:1019A000002C0140003401400004004000080040C9
:1019B000000C0040FEE701684A69D24352050FD48B
:1019C0006FF480624A61002140F8301F2022427388
:1019D0008173026942F004020261017301207047C1
:1019E000002070472DE9F84F0446C06A1E46934612
:1019F0000D4621680A6842F480620A60082807D010
:101A0000012805D010F5803F02D0206B112804D1A9
:101A10002068016841F4807101604FF001195B4654
:101A2000002249462046009600F0CCF84FF400789A
:101A300040B120680068C00501D5C4F8408003208B
:101A4000BDE8F88F2069DFF884A0B0F5804F0FD093
:101A50000620216800EAD51747F0F00008613346F8
:101A60005A460AF10601204600F0F4F858BB03E09C
:101A7000E8B240F001001CE02168E8B2086133469A
:101A80005A465146204600F0E5F8E0B92068416921
:101A900081690091016841F4807101605B46002218
:101AA00049462046009600F08DF80028C1D147F045
:101AB000F1002168086133465A465146204600F03D
:101AC000C9F80028BCD00120BAE7000002000100DC
:101AD000F8B50446C06A1E460D461746082807D0CA
:101AE000012805D010F5803F02D0206B122804D1C8
:101AF0002068016841F480710160134600224FF0B4
:101B000001112046009600F05DF840B120680068A1
:101B1000C00502D54FF4007020640320F8BD206991
:101B2000B0F5804F0ED00620216800EAD51040F0B5
:101B3000F000086133463A460B49204600F08AF827
:101B400078B902E005F0FE0000E0E8B22168086123
:101B5000054933463A46891F204600F07BF80028A5
:101B6000DCD00120F8BD00000800010070B5164669
:101B70000D4604461EE02046FFF71DFF08B1012078
:101B800070BD681C16D0FEF7D5FD801BA84200D89A
:101B900085B920684069C04340070BD5002044F850
:101BA000300F20216173A073216941F02001216170
:101BB0002073E4E720684069C0434007DBD400207D
:101BC00070BD00002DE9F047984617460D460446C3
:101BD000C1F30746DDF820902AE000BFB8F1FF3FCF
:101BE00026D0FEF7A7FDA0EB0901414502D8B8F1C8
:101BF000000F1DD12068012E16D0806925EA000053
:101C00000004000C12D00020B84211D1002044F88A
:101C1000300F20216173A073216941F020012161FF
:101C200020730120BDE8F0874069E7E70120EBE77A
:101C30002068012E0AD0806925EA00000004000C0B
:101C400006D00020B842C9D00020EBE74069F3E796
:101C50000120F7E72DE9F047984616460D46044661
:101C60004FF000094FF0200AC1F3074723E0206836
:101C70004069C043400515D42068016841F40071F3
:101C8000016021686FF480604861C4F8309084F886
:101C90003DA084F83E90216C41F00401216484F859
:101CA0003C9021E0701C06D0FEF744FDA0EB08003C
:101CB000B04203D816B1012F1FD021E02068012FB8
:101CC00015D0806925EA00000004000C18D000BF80
:101CD00044F8309F84F80DA084F80E90216941F0FB
:101CE0002001216184F80C900120BDE8F087406953
:101CF00025EA00000004000CEAD12068406901E0F8
:101D00002068806925EA00000004000CAFD1ECE7F0
:101D10002DE9F041002590460E460446202728E094
:101D20004069C043C0060CD454F8301B6FF010005B
:101D3000486144F810596777A577206A20622577B3
:101D400014E0FEF7F7FCA0EB0800B04200D886B91B
:101D500020684069C04340060BD544F8305F677384
:101D6000A573206940F02000206125730120BDE8A3
:101D7000F08120684169C9434906D1D40020F6E7C3
:101D800070B516460D4604461EE02046FFF713FECA
:101D900008B1012070BD681C16D0FEF7CBFC801B7B
:101DA000A84200D885B920684069C04300060BD519
:101DB000002044F8300F20216173A073216941F0A5
:101DC000200121612073E4E720684069C0430006D8
:101DD000DBD4002070BD000030B585B00024184869
:101DE0000094019402940394816941F0040181619B
:101DF000816901F004010491816941F00801816168
:101E0000816901F008010491816941F0100181614B
:101E100080690C4D00F01000049000220821284633
:101E2000FEF782FC082000900120CDE90104022089
:101E3000039069462846FEF77BFB05B030BD0000E5
:101E400000100240000801400D4810B50B49016028
:101E50000C49416000214FF480428160C0E90312C7
:101E600041618161C1610162FEF76AFC002803D013
:101E7000BDE81040FEF748BB10BD00000054004014
:101E800018000020A08601000D4810B50B49016024
:101E90000C49416000214FF480428160C0E9031287
:101EA00041618161C1610162FEF74AFC002803D0F3
:101EB000BDE81040FEF728BB10BD000000580040F0
:101EC0006C000020A0860100104810B50E4901608A
:101ED0004FF48271416000218160C1604FF4007253
:101EE0000161C0E905122022C0E907214162816237
:101EF0000A21C162FFF7D8F9002803D0BDE81040DD
:101F0000FEF702BB10BD000000300140C000002001
:101F100010B58EB000240794089409940A940B9489
:101F20001C2168460C94FEF738F91F484FF0804199
:101F300001604721C0E9011444F61F61C0E90314A0
:101F40008461FFF749FB08B1FEF7DEFA4FF48050D9
:101F5000079007A91448FFF78BFB08B1FEF7D4FAE6
:101F60001148FFF79FFC08B1FEF7CEFA0B940BA9BE
:101F70000D480C94FFF7F2FA08B1FEF7C5FA60209D
:101F800000904FF4FA70CDE901040022694606483A
:101F90000494FFF721FC08B1FEF7B6FA0248FFF7F8
:101FA000D5FB0EB010BD00001801002010B58EB09A
:101FB00000240794089409940A940B941C21684601
:101FC0000C94FEF7EAF81F481D4901604721C0E95B
:101FD000011444F61F61C0E903148461FFF7FCFAA1
:101FE00008B1FEF791FA4FF48050079007A9154801
:101FF000FFF73EFB08B1FEF787FA1248FFF752FCE5
:1020000008B1FEF781FA0B940BA90E480C94FFF768
:10201000A5FA08B1FEF778FA602000904FF4FA7044
:10202000CDE901040422694606480494FFF7D4FB75
:1020300008B1FEF769FA0348FFF788FB0EB010BD40
:102040000004004060010020FEE7FEE77047F8B59D
:1020500015460E460B46009204460122022100F06E
:1020600011F840B93346002280212046009500F047
:1020700009F8002804D0606D40F02000606503205E
:10208000F8BD00002DE9F8431E46914688460446F7
:10209000089DFEF74FFB401B351AFEF74BFB07462A
:1020A00025480068C0F3CB30684338E0701C37D057
:1020B000FEF740FBC01BA84203D215B1009860B3E5
:1020C0002CE02068416821F0E00141606068B0F5D3
:1020D000827F0BD1A068B0F5004F02D0B0F5806FC1
:1020E00004D12068016821F040010160A06AB0F5C8
:1020F000005F09D12068016821F400510160206867
:10210000016841F400510160012084F85100002071
:1021100084F850000320BDE8F8830025401E00909D
:102120002068816838EA010004D000214945BDD10A
:102130000020F0E70121F9E71400002070B51D4EE2
:10214000A2B0002210213046FEF7EEFA002208214C
:102150003046FEF7E9FA18A04FF0FF3500682090EE
:102160002B46032220A91548FFF730F914A02B466F
:1021700000682190032221A91048FFF727F90122C6
:1021800008213046FEF7D0FA80216846FEF705F8B0
:1021900000242B46802269460848FFF717F9641C83
:1021A000082CF6DB012210213046FEF7BDFA22B0E2
:1021B00070BD00000008014021007F00C000002029
:1021C0002200070010B50F4C86B0002210212046D7
:1021D000FEF7AAFA002208212046FEF7A5FA1422EB
:1021E00009A16846FDF7C0FF4FF0FF331122694691
:1021F0000A48FFF7EBF8012210212046FEF794FA77
:1022000006B010BD00080140AED580A83F20008D6B
:1022100014A1C8D30040A6A4AF000000C000002055
:10222000F8B5134E0D460446002210213046FEF745
:102230007BFA002208213046FEF776FAB0358DF899
:10224000005004F00F008DF80100102040EA141037
:102250008DF802004FF0FF33032269460548FFF76F
:10226000B5F8012210213046FEF75EFAF8BD0000F5
:1022700000080140C00000201CB5024603A16846CA
:1022800000F0EEF9684600F003F81CBD256400007C
:102290002DE9F04105464FF0FF38154E154F22E06D
:1022A0000022102130466D1CFEF73EFA0122082163
:1022B0003046FEF739FAA4F13000092808D804EBBB
:1022C000440007EB4001062243460B48E43903E093
:1022D0004346062207490848FFF778F801221021F3
:1022E0003046FEF721FA2C78002CD9D1BDE8F081D8
:1022F00000080140B6290008C00000207047000017
:1023000070B5124E0C46054612F1FF4F01D3002264
:1023100002E0B24200DD32460D491046FDF7A0FF53
:102320003146FDF7CFFFFEF714F800F5FA7081B2E1
:1023300028682CB1042C05D0082C05D0016470BD90
:10234000416370BD816370BDC16370BD00003443E3
:102350000000FA44FEF7C2BC30B58FB028216846B1
:10236000FDF71BFF14210AA8FDF717FF0121080440
:10237000CDE900100024029402250491CDE9075014
:102380004FF4E01009906846FEF7FEFD08B172B602
:10239000FEE70F20CDE90A054FF48060CDE90C403F
:1023A00002210AA80E94FEF723FD002801D072B680
:1023B000FEE70FB030BD7047F0B50268204C214DEC
:1023C000214E224F224B4FF0804CA04209D0984220
:1023D00007D0604505D0A84203D0B04201D0B84232
:1023E00004D122F0700E4A6842EA0E02A04209D0DF
:1023F000984207D0604505D0A84203D0B04201D032
:10240000B84203D122F44075CA682A434D6922F0CC
:1024100080022A4302608A68C2620A688262A0421D
:1024200001D0984201D1096901630121416101692B
:10243000C90703D0016921F001010161F0BD00006D
:10244000002C01400004004000080040000C004047
:102450000034014010B501F01F030121046A9940C6
:102460008C430462016A9A401143016210BD10B5A9
:10247000846842EA032224F47F440A4322438260B0
:1024800010BD826822F070020A4342F007018160A9
:1024900070470000F0B5036A026A22F0010202628E
:1024A00042688469124E24F073050C682C4323F0B3
:1024B00002058B682B430D4DA84201D0B04205D1D7
:1024C00023F00807CB683B4323F00403A84201D064
:1024D000B04205D14D6922F4407215438A692A43FE
:1024E00042608461496841630362F0BD002C014091
:1024F00000340140F0B5026A036A23F0100303625E
:10250000436884690D6824F4E64444EA05248D6830
:1025100022F0200242EA05120F4D104EA84201D0CF
:10252000B04206D1CF6822F0800242EA071222F0C0
:102530004002A84201D0B04207D14D6923F4406364
:1025400043EA85038D6943EA8503436084614968F2
:1025500081630262F0BD0000002C014000340140A4
:10256000F0B5026A036A23F4807303624368C469A6
:1025700022F4007224F073050C68124E2C438D680F
:1025800042EA05220E4DA84201D0B04206D1CF68E2
:1025900022F4006242EA072222F48062A84201D0BB
:1025A000B04207D14D6923F4405343EA05138D69C6
:1025B00043EA05134360C4614968C1630262F0BD28
:1025C000002C01400034014030B5046A026A22F454
:1025D000805202624268C3690D6823F4E64343EA0D
:1025E00005238D6824F4005444EA0534084DA842BC
:1025F00002D0084DA84204D14D6922F4804242EA3B
:1026000085124260C36149680164046230BD000004
:10261000002C01400034014010B5036A046A24F024
:1026200001040462846924F0F00444EA021423F0F3
:102630000A020A438461026210BD10B5036A046A8B
:1026400024F010040462846923F0A00324F470448D
:1026500044EA023243EA01118261016210BDFEE7E1
:102660000FB4084B10B504A902AA039800F02CF887
:10267000044602A9002000F0D1F8204610BC5DF805
:1026800014FB00001D2800080907090E002804DBC0
:1026900000F1E02080F80014704700F00F0000F116
:1026A000E02080F8141D704702E008C8121F08C11E
:1026B000002AFAD170477047002001E001C1121FC3
:1026C000002AFBD1704700002DE9FF4F89B09B46DF
:1026D0000446002506E025280BD05A460B99904762
:1026E000641C6D1C20780028F5D10DB02846BDE88B
:1026F000F08F0027B8460122474900E0074314F84D
:10270000013F203B02FA03F00842F7D120782E283F
:1027100019D114F8010F47F004072A280ED06FF0E2
:102720002F022078A0F1300109290CD808EB88018C
:1027300002EB410100EB0108641CF2E70A98641CFB
:1027400050F8048B0A9020780028CED0642808D056
:10275000692806D075281ED05A460B9990476D1CE3
:1027600058E00A994FF00A0901C90A91002802DAD3
:1027700040422D2102E0390504D52B218DF820108F
:10278000012103E0F90704D02021F7E78A4608AECB
:102790000DE00021FAE70A994FF00A0901C90A91F0
:1027A000F7E74946FDF7FCFD303106F8011D00282A
:1027B000F7D1ADEB060000F12009780701D44FF006
:1027C0000108C84502DDA8EB090000E000208046B2
:1027D000002706E008A85A46C05D0B9990476D1C7B
:1027E0007F1C5745F6DB04E030205A460B99904792
:1027F0006D1CB8F10001A8F10108F5DC05E016F840
:10280000010B5A460B9990476D1CB9F10001A9F1D3
:102810000109F4DC641C65E7092801000A68531CFF
:102820000B60107070470000FEF760FAFFF794FD30
:10283000FFF7D2FAFFF708FBFFF726FBFFF744FB91
:10284000FFF766FBFFF7B2FBFDF70AFEC820FDF7B6
:102850005DFEFFF7B7FCFFF771FC00214048FFF772
:102860004FF804213F48FFF74BF8DFF8FCA0DFF8F2
:10287000FCB0DFF8FC903C48FDF728FEFFF75EFC5B
:1028800000210846FFF7CCFC3AA0FFF701FD5446B3
:10289000BAF80000FFF7F0FC01210020FFF7C0FCB0
:1028A00035A0FFF7F5FC6088FFF7E6FC0221002069
:1028B000FFF7B6FC31A0FFF7EBFCA088FFF7DCFCCC
:1028C00003210020FFF7ACFC2DA0FFF7E1FCE0881E
:1028D000FFF7D2FC2788A6886588E488B8192919EB
:1028E000401AFDF72DFD804678193119401AFDF781
:1028F00027FD5C465946FDF7B3FC224E3146FDF7F5
:1029000057FC054621464046FDF7AAFC3146FDF737
:102910004FFC1D4904468D4201D3002502E04D4580
:1029200000DD4D468C4201D3002402E04C4500DD21
:102930004C462846FDF721FD02460B46002108487B
:10294000FFF7DEFC2046FDF718FD02460B4604218A
:102950000448FFF7D5FC6420FDF7D8FD8BE70000A5
:10296000180100206001002000000020CDCCCC3DEB
:102970000000344353313A0053323A0053333A00A3
:1029800053343A000000B442000080800102020388
:102990000405060708090A0B0C0D0E0F10100000A5
:1029A00000000000000001020304060708090000FF
:1029B00000000102030400000000000000005F00AE
:1029C00000000007000700003E5149453E0000425C
:1029D0007F4000004261514946002141454B310092
:1029E0001814127F10002745454539003C4A4949D3
:1029F000300001710905030036494949360006498E
:102A000049291E00242A00080000002018000000A8
:102A1000A82600083C2A00081800002090050000A5
:102A2000B8260008000000000000000001000000BF
:0C2A3000100000000000000000127A00FE
:0400000508000131BD
:00000001FF
